:10000000022E2202000632323232320234F432320E
:0100100032BD
:0300130002382888
:03001B000234129A
:0300230002388917
:03002B00020007C9
:03003300020008C0
:03003B00022C652F
:03004300020009AF
:03004B000238492F
:030053000218C0D0
:03005B0002000A96
:0300630002394B14
:03006B0002000E82
:0300730002000F79
:10007B0002001002043FE86480F8E933E8336011B2
:10008B000460F0ED33EC337009E8FCE9FDEAFEEBBC
:10009B00FF220460DED3EB9FEA9EE99DE8C2E78C6A
:1000AB00F0C2F795F0400CE8CCF8E9CDF9EACEFABE
:1000BB00EBCFFB12040A85D0F05804700320D5B3A4
:1000CB00E80470075002B2D502044992D5EC0460E3
:1000DB00F7E4CCC0E0C398F8603B94186008400D7F
:1000EB00D0E0FB020421E4FBFAC9FC8028E830E4F1
:1000FB0006E4C9FBE4CAFCE830E305E4C9CACBFC5F
:10010B00E854076010F8C3E913F9EA13FAEB13FB91
:10011B00EC13FCD8F130F52FC3E49CFCEF9BFFEE06
:10012B009AFEED99FDD0E0FBEF4E4D4C701222DBA9
:10013B0003020446EC2CFCEF33FFEE33FEED33FDF4
:10014B00ED30E7EB020421EF2BFFEE3AFEED39FD2C
:10015B00D0E0FB50130BBB0003020449ED13FDEE83
:10016B0013FEEF13FFEC13FC020421EC4D6011E8BE
:10017B00497017ED33EC3304600DE4FCFFFEFD22F8
:10018B00E933E8330470F802043F12040A580460A0
:10019B0009E4CC2481500628500902044928400365
:1001AB00020446C0E0EB4A7044B98006D0E0FB0283
:1001BB000435EF4E701CBD8008EBFFEAFEE9FD80B5
:1001CB00EBE98DF0A4FEE5F002025FE9CDF9EAFE62
:1001DB00EBFFEF89F0A4FCE5F0CE89F0A42EFFE451
:1001EB0035F0CD89F0A42DFEE435F08067EF4E702D
:1001FB0005BD80D780C3EF8BF0A4ACF0EE8BF0A4E1
:10020B002CFCE435F0F8EF8AF0A42CE5F038FCE494
:10021B0033CB8DF0A42CFCE5F03BF8EE8AF0A42C4C
:10022B00FCE5F038F8E433CF89F0A42CFCE5F0388A
:10023B00CF3400CE89F0A42FFFE5F03EFEE433C9A6
:10024B008DF0A42EFEE5F039CD8AF0A42FFFE5F05A
:10025B003EFEE43DFD33D0E0FB50070BBB000F022D
:10026B000449EC2CFCEF33FFEE33FEED33FD0204BF
:10027B0021020449EC5D046005E859047003020493
:10028B003F12040A580460F6EC4860F2EC7004FD6F
:10029B00FEFF22C860DB2481C85009C3986002505E
:1002AB00060204469850CAF582E9294B4A7005AB01
:1002BB008202043575F0007C1A7880C3EF9BEE9AAE
:1002CB00ED99400DC3EF9BFFEE9AFEED99FDE842D1
:1002DB00F0DC23ACF0D0E0FFD0E0FED0E0FDAB8251
:1002EB0020E7101BEB60BAEC2CFCEF33FFEE33FE78
:1002FB00ED33FD020421E803F830E705C0F075F09B
:10030B0000EF2FFFEE33FEED33FD40B830E7C28038
:10031B00AA74F8CC6480CCC86480C8F58204604FA2
:10032B00C3EB9FF5F0EA9E42F0E99D42F0E89C4555
:10033B00F0603C501DE5825FFFE582D313CB5BCBB6
:10034B00F42B5582FB50280ABA002409B900200867
:10035B00801DE5825BFBE582D313CF5FCFF4C31324
:10036B002F5582FF50090EBE00050DBD00010CC3B9
:10037B00EB9FF5F0EA9E42F0E99D42F0E89C45F0D8
:10038B006007CC4820E701B3EC2275F020800E7596
:10039B00F010800575F0087D007E007F003392D54C
:1003AB0030D503120807EC334010EF33FFEE33FE6A
:1003BB00ED33FDEC33FCD5F0ED22E5F0247EA2D538
:1003CB0013CC92E7CDCEFF22EDD2E7CD33EC3392B7
:1003DB00D524814006E4FFFEFDFC22FCE4CFCECD0C
:1003EB00CC24E0501174FF80EDC3CC13CCCD13CDD6
:1003FB00CE13CECF13CF0470F030D5DE020807E951
:10040B00D2E7C933E833F892D5EDD2E7CD33EC33ED
:10041B00FC5002B2D522EC30E7100FBF000C0EBE21
:10042B0000080DBD00040BEB6014A2D5EB13FCED23
:10043B0092E7FD2274FFFCFDFEFF22E480F8A2D5BB
:10044B0074FF13FC7D80E480EFBB010689828A83F5
:10045B00E0225002E722BBFE02E32289828A83E478
:10046B009322BB010CE58229F582E5833AF583E003
:10047B00225006E92582F8E622BBFE06E92582F822
:10048B00E222E58229F582E5833AF583E49322BBE8
:10049B00010989828A83F8E028F022500327F7228A
:1004AB00BBFE05F8E328F3228A838982F8E49328BC
:1004BB0022BB010FF8E58229F582E5833AF583E04B
:1004CB0028F0225009C58229F8E58226F622BBFEC8
:1004DB0009C58229F8E22582F222F8EA2583F58301
:1004EB00E9932822BB010689828A83F0225002F706
:1004FB0022BBFE01F322F8BB010DE58229F582E553
:10050B00833AF583E8F0225006E92582C8F622BB30
:10051B00FE05E92582C8F222EF8DF0A4A8F0CF8C5E
:10052B00F0A428CE8DF0A42EFE22BC000BBE002919
:10053B00EF8DF084FFADF022E4CCF875F008EF2FCF
:10054B00FFEE33FEEC33FCEE9DEC984005FCEE9D8C
:10055B00FE0FD5F0E9E4CEFD22EDF8F5F0EE8420A8
:10056B00D21CFEADF075F008EF2FFFED33FD400709
:10057B00985006D5F0F222C398FD0FD5F0EA22C5AC
:10058B00F0F8A3E028F0C5F0F8E5821582700215AB
:10059B0083E038F022A3F8E0C5F025F0F0E58215F2
:1005AB008270021583E0C838F0E822BB010A898209
:1005BB008A83E0F5F0A3E022500687F009E71922C1
:1005CB00BBFE07E3F5F009E3192289828A83E493E2
:1005DB00F5F074019322BB0110E58229F582E583C6
:1005EB003AF583E0F5F0A3E0225009E92582F8867D
:1005FB00F008E622BBFE0AE92582F8E2F5F008E2F4
:10060B0022E5832AF583E993F5F0A3E99322BB0155
:10061B000789828A8302058A500B09C5F027F7C523
:10062B00F01937F722BBFE0D09F8E325F0F3C5F0FF
:10063B0019E338F322F889828A8374019325F0C574
:10064B00F0F8E4933822BB010DC58229C582C5831E
:10065B003AC58302058A5011C58229F808E5F026B0
:10066B00F618F5F0E58236F622BBFE11C58229F8A5
:10067B0008E225F0F5F0F218E23582F222F8E58275
:10068B0029F582E5832AF58374019325F0F5F0E4CF
:10069B00933822BB010A89828A83F0E5F0A3F0220A
:1006AB005006F709A7F01922BBFE06F3E5F009F394
:1006BB001922F8BB0111E58229F582E5833AF5830E
:1006CB00E8F0E5F0A3F0225009E92582C8F608A668
:1006DB00F022BBFE09E92582C8F2E5F008F222E818
:1006EB008FF0A4CC8BF0A42CFCE98EF0A42CFC8A0C
:1006FB00F0EDA42CFCEA8EF0A4CDA8F08BF0A42D89
:10070B00CC3825F0FDE98FF0A42CCD35F0FCEB8E29
:10071B00F0A4FEA9F0EB8FF0A4CFC5F02ECD39FEDF
:10072B00E43CFCEAA42DCE35F0FDE43CFC2275F054
:10073B0008758200EF2FFFEE33FECD33CDCC33CCDB
:10074B00C58233C5829BED9AEC99E58298400CF5F6
:10075B0082EE9BFEED9AFDEC99FC0FD5F0D6E4CE24
:10076B00FBE4CDFAE4CCF9A88222B800C1B9005958
:10077B00BA002DEC8BF084CFCECDFCE5F0CBF97825
:10078B0018EF2FFFEE33FEED33FDEC33FCEB33FBB9
:10079B0010D703994004EB99FB0FD8E5E4F9FA2243
:1007AB007818EF2FFFEE33FEED33FDEC33FCC9333E
:1007BB00C910D7059BE99A4007EC9BFCE99AF90F06
:1007CB00D8E0E4C9FAE4CCFB2275F010EF2FFFEE72
:1007DB0033FEED33FDCC33CCC833C810D7079BECBD
:1007EB009AE899400AED9BFDEC9AFCE899F80FD535
:1007FB00F0DAE4CDFBE4CCFAE4C8F922C3E49FFFC2
:10080B00E49EFEE49DFDE49CFC22EB9FF5F0EA9E4A
:10081B0042F0E99D42F0EC6480C864809845F02278
:10082B00EB9FF5F0EA9E42F0E99D42F0E89C45F023
:10083B0022E8600FECC313FCED13FDEE13FEEF1378
:10084B00FFD8F122E86010ECA2E713FCED13FDEEEC
:10085B0013FEEF13FFD8F022BB010DE58229F582C1
:10086B00E5833AF58302098B5007E92582F80208E4
:10087B00B7BBFE07E92582F8020997E58229F582C5
:10088B00E5833AF5830209A3BB010DE58229F582C5
:10089B00E5833AF5830208DC5007E92582F8020864
:1008AB00D0BBFE07E92582F80209B322E6FC08E675
:1008BB00FD08E6FE08E6FF22E6FB08E6F908E6FA85
:1008CB0008E6CBF822ECF608EDF608EEF608EFF6A4
:1008DB0022ECF0A3EDF0A3EEF0A3EFF022D083D047
:1008EB0082E493F608740193F608740293F6087485
:1008FB000393F6740473A8828583F0D083D082129D
:10090B000918120918120918120918E473E493A3B1
:10091B00C583C5F0C583C8C582C8F0A3C583C5F020
:10092B00C583C8C582C822EC8EF0A4CCC5F0CCCD53
:10093B00F8EFA4CEC5F02DFDE43CFCE8A42EC8C511
:10094B00F03DFDE43CFCEFA4FFE5F028FEE43DFDAB
:10095B00E43CFC22EF4E6012EF60010EEDBB010B8D
:10096B0089828A83F0A3DFFCDEFA2289F05007F735
:10097B0009DFFCA9F022BBFEFCF309DFFCA9F02286
:10098B00E0FCA3E0FDA3E0FEA3E0FF22E2FC08E213
:10099B00FD08E2FE08E2FF22E493FC740193FD7470
:1009AB000293FE740393FF22ECF208EDF208EEF2D1
:1009BB0008EFF222900130E0900291F06402703265
:1009CB0078A6760178A0E6B4011678A6E6D3940053
:1009DB00400A9001007401F0900104F0E478A0F655
:1009EB00900100E06003020F929000F2F0A3F0027E
:1009FB000F92900291E0FC64036003020BB8A29784
:100A0B00335401FE25E0FE90028FE054FD4EF0E0E2
:100A1B00FF5401FEEFC3135401B5060FE0FF540260
:100A2B00FE25E0FEEF54FB4EF0801090028FE0FFAE
:100A3B005402FEC313FEEF54FE4EF0A295E4335462
:100A4B0001FF25E0FF900292E054FD4FF0E0FF54D0
:100A5B0001FEEFC3135401B5060FE0FF5402FE2550
:100A6B00E0FEEF54FB4EF08010900292E0FF540238
:100A7B00FEC313FEEF54FE4EF0A293E4335401FF7A
:100A8B0025E0FF900294E054FD4FF0E0FF5401FE8F
:100A9B00EFC3135401B5060FE0FF5402FE25E0FE31
:100AAB00EF54FB4EF08010900294E0FF5402FEC313
:100ABB0013FEEF54FE4EF090028FE054DFF054BF64
:100ACB00F0E0FF5408FE25E0FEEF54EF4EF0E0FFA0
:100ADB005404FE25E0FEEF54F74EF0E0FFC4540142
:100AEB00FEEF13131354016E6011E0FF30E3054466
:100AFB0020F0800790028FE04440F0900292E05487
:100B0B00DFF054BFF0E0FF5408FE25E0FEEF54EF9A
:100B1B004EF0E0FF5404FE25E0FEEF54F74EF0E0FC
:100B2B00FFC45401FEEF13131354016E6011E0FF69
:100B3B0030E3054420F08007900292E04440F090AF
:100B4B000294E054DFF054BFF0E0FF5408FE25E0C0
:100B5B00FEEF54EF4EF0E0FF5404FE25E0FEEF54A1
:100B6B00F74EF0E0FFC45401FEEF13131354016E64
:100B7B006011E0FF30E3054420F08007900294E021
:100B8B004440F090028FE020E31C78B106E6B46499
:100B9B0005D207020F9278B1E6C394655003020F9A
:100BAB00927665020F92E478B1F6020F92EC640430
:100BBB007061900100E064016003020F9278A6E679
:100BCB00FF6018900294E020E30A78B0760178BBBE
:100BDB0076018007E478B0F678BBF6EF640160032A
:100BEB00020F9290028FE0FF30E60954BFF0789D20
:100BFB00061237DF900292E0FF20E603020F9254B9
:100C0B00BFF078BBE66003020F9278A30612386937
:100C1B00020F92900291E0FB64056003020CE678F0
:100C2B00A9E624FFFFE434FFFE7C007DB61205230A
:100C3B00EF244FFFEE342AC313795EF7EF1309F756
:100C4B009000F2744CF0A37461F0300607785E7676
:100C5B002A0876AA9000FEE0FEA3E0FFD39414EEE0
:100C6B009405400D783874F626F61874FF36F68026
:100C7B0013C3EF940AEE9405500A7838740A26F6DB
:100C8B0018E436F67837E6FE08E6FFD39471EE9457
:100C9B005C400818765C0876718010C3EF941CEEEC
:100CAB00940750077837760708761C7837E6FE08E6
:100CBB00E6FFD3785FE69FEE6480F5F018E664807C
:100CCB0095F04005A60608A607900100E060030218
:100CDB000F929000F2F0A3F0020F92EB6406600308
:100CEB00020F3178BBE6FF6401600E900100E060FB
:100CFB00089002C5E06407600D9002937401F0E464
:100D0B0078B4F6020E6EE4900293F078B5E6FE64CA
:100D1B0004704778A9E6FDB401109002967419F09F
:100D2B00A37478F078B4760A8022EDB402109002A6
:100D3B00967416F0A37446F078B4760D800E90027C
:100D4B00967419F0A37437F078B4761278A276649F
:100D5B0078AB76060876BA020E6EEE6403704D78A9
:100D6B00A2766478AB76060876BA78A9E6FEB4016B
:100D7B00159002967416F0A3743CF078A276627804
:100D8B00B47610020E6EEEB4021178B476119002A6
:100D9B00967419F0A37437F0020E6E78B476129035
:100DAB0002967419F0A37437F0020E6E78B5E6FE56
:100DBB006402705678A9E6FDB4011590029674236F
:100DCB00F0A37464F078A2766278B4760A020E6EA1
:100DDB00EDB4021B9002967419F0A37450F078B422
:100DEB00760C78A2766478AB7608087622807490BD
:100DFB0002967416F0A37446F078B4760D78A2764A
:100E0B006478AB76080876228059EE6401704678D8
:100E1B00A9E6FEB4011B900296742DF0A37478F032
:100E2B0078B4760778A2766478AB76080876DD809E
:100E3B0032EEB40210900296742DF0A37478F07811
:100E4B00B47608801E9002967428F0A37478F0781C
:100E5B00B47609800EE478B4F678A2760A78AB768D
:100E6B001008F69002C5E0B40715D378AFE694648A
:100E7B0018E6648094804007D200E4900299F0D386
:100E8B0078BAE694D218E6940F4004E478B4F6EFFF
:100E9B006401600878B4E678AAF68005E4900295C0
:100EAB00F078B5E6B4043278BBE6702D789E080670
:100EBB00E6187001068606D39476EE94044008E497
:100ECB00789EF608F68018D3789FE694AC18E694D3
:100EDB0001400CE478B4F68006E4789EF608F678C8
:100EEB00B4E6FF78AAE6D39F4002A607EF601B90FB
:100EFB0000EFE0FF78AAE6FED39F400A9000EBE0FC
:100F0B002EC39FF6800478AA760178AAE6D39414B0
:100F1B004002761478AAE6FFC313FE78BDF6EF54B1
:100F2B00012E08F68061900291E0640770599002DF
:100F3B00C5E064077051900100E06401704978A925
:100F4B00E6FF13B39283EF5402FFC31324FFB39254
:100F5B0082E6FF5404FE1313543F24FFB39281EF38
:100F6B005408FF131313541F24FFB39280E6FF544E
:100F7B0010FEC4540F24FFB392B7EF5420FFC413D9
:100F8B00540724FFB392B678A4E664017042F67955
:100F9B009BE7C378BD96500678A576038004E4786A
:100FAB00A5F6789B06E6C3940A4002E4F6C3740ADE
:100FBB0078BE96FF78A7E6C39F400678BC76038081
:100FCB0004E478BCF678A706E6C3940A4002E4F67C
:100FDB0078A5E6D394004017D390012AE094E890CB
:100FEB000129E094034004C2018006D2018002D2A1
:100FFB000178BCE6D394004017D390012AE094E823
:10100B00900129E094034004C2028006D2028002C0
:10101B00D202900298E0702C9000F2F0A3F0D390E3
:10102B000139E09432900138E0940050079000F7BA
:10103B00E0B401109002987402F090010014F0E4F7
:10104B00900104F022900130E004F0C3940A4002B6
:10105B00E4F0900138E475F00112058AAFF0FEE47C
:10106B00FCFD7B607AEAF9F8D3120815500A90015F
:10107B003874EAF0A37460F09002C5E0702D900113
:10108B0029F0A3F090010175F00112058AAFF0FE73
:10109B00E4FCFD7B607AEAF9F8C312081550409026
:1010AB00010174EAF0A37460F080349002C5E0B4DF
:1010BB000726900129E475F00112058AAFF0FEE4D2
:1010CB00FCFD7B607AEAF9F8C3120815500A90010F
:1010DB002974EAF0A37460F0E4900101F0A3F0909E
:1010EB000034E0FEA3E07803CEC313CE13D8F97916
:1010FB0030F7EE19F79000E4E0FEA3E07803CEC3DF
:10110B0013CE13D8F979BAF7EE19F7900000E0FE79
:10111B00A3E07803CEC313CE13D8F9FF900116EEDC
:10112B00F0A3EFF0900123E0FEA3E0FF9002B0E00C
:10113B00FCA3E0FDD39FEC9E401BED9FFFEC9EFEBE
:10114B00EF7803CEC313CE13D8F9FF900107EEF05F
:10115B00A3EFF08007E4900107F0A3F0900116E0F5
:10116B00FEA3E0FF7C127DED120932780C12083CD5
:10117B0090011AEEF0A3EFF0C390010AE09F9001EB
:10118B0009E09E500F90011AE0FFA3E0900109CFF8
:10119B00F0A3EFF0789BE66003021226900127E0A4
:1011AB0004F0D394644074900109E0FEA3E0FFD3F4
:1011BB009440EE9406501FC374409FFF74069EFE2E
:1011CB00900296E0FD7C001205359000EBEFF0E409
:1011DB009000EFF08022E49000EBF090010AE02405
:1011EB00C0FF900109E034F9FE900297E0FD7C000E
:1011FB001205359000EFEFF09000EBE0D394034035
:10120B00037403F09000EFE0D3940740037407F0EE
:10121B00E4900109F0A3F0900127F0900107E0FEA4
:10122B00A3E0FF7C397D71120932780C12083C90D7
:10123B0000FEEEF0A3EFF0900130E020E03D904097
:10124B00D4E0FEA3E0FFEE3395E0FDFCE47BE47A13
:10125B0057F9F81206EA780C12083C78231208D0DA
:10126B00900116E0FEA3E0FF900107E0FCA3E0FD78
:10127B0012093278461208D00213429000FEE0FCAD
:10128B00A3E0FDE412039A7B007A8079097845127A
:10129B00031C5032900110E475F00112058AFEC355
:1012AB00E5F09404EE94004027E4900110F0A3F0D5
:1012BB00782276017859760190012F7402F012385A
:1012CB00C31235F2800AE47822F6900110F0A3F0F5
:1012DB00D39000FFE094DC9000FEE09405402E904C
:1012EB000141E475F00112058AFEC3E5F094EEEEC0
:1012FB00940240347859760190012F7403F0E490F6
:10130B000141F0A3F01238C31235F2801BC39001D8
:10131B0042E09402900141E09400400CA3E024FED3
:10132B00F0900141E034FFF012217E12201C1223B9
:10133B00F712302B1231EC900130E0FF64036008A0
:10134B00EF640760030213F490011AE0FCA3E0FDC5
:10135B00E412039A7B007A607906784512031C50DD
:10136B001D90010BE004F0C3940A401AE4F0783CA2
:10137B007601783376011238C312393F8008E4784E
:10138B003CF690010BF090011AE0FCA3E0FDE41297
:10139B00039AE4FBFA79FA784312031C6021401F8D
:1013AB00900133E004F0C3940A4019900105E0B4B6
:1013BB0002069000E87401F0E4900105F08005E46A
:1013CB00900133F0D390011BE0942690011AE09426
:1013DB0002500302148D9001057402F0E49000F4A6
:1013EB00F0A3F0784DF602148D900130E0640560A7
:1013FB0003021483200C7AD20C122A14D37830E611
:10140B0094D218E6940F40047F0180027F00D378BA
:10141B0061E6945A18E66480948040047E01800251
:10142B007E00EE4FFFA200E4334F6028900120E0D6
:10143B0004F0C39402404BE4F090010FE09402508F
:10144B00097402F01238C312393F784F760178577E
:10145B007601802EE4900120F0C37861E694581851
:10146B00E664809480501BE490010FF07857F6806F
:10147B0011C20C122AE5800A900130E0B40103126C
:10148B001EB9783BE6B40114E4F67841F6783D06D4
:10149B00E6C394054006760578367601900138E070
:1014AB007004A3E0644670097836E67004783476ED
:1014BB0001784106E6C3942C748094814014762CF9
:1014CB00E4783DF67836E6B4010478347601E478B6
:1014DB0036F6900130E0B409069001347401F02225
:1014EB009000F0E0B4012ED39000FCE0940090004B
:1014FB00FBE09400400EA3E024FFF09000FBE034EF
:10150B00FFF080119000F17401F0E49000F0F09086
:10151B00013CE004F090013CE0D394004022D390D6
:10152B000102E094F4900101E09401500E90012A25
:10153B00E094C4900129E094094005E490013CF04B
:10154B009000F2E0FFA3E0900118CFF0A3EFF0A31F
:10155B00E0FCA3E0FDE412039AE4FBFA79FA78438A
:10156B0012031C602B40297852E6D3940040219043
:10157B000136E475F00112058AFED3E5F09432EEE4
:10158B0094004013E4900136F0A3F07851F68007F5
:10159B00E4900136F0A3F0E490011DF09000F7E029
:1015AB00702CC3900139E09432900138E0940040E4
:1015BB000FD390011BE0942690011AE0940250087F
:1015CB0090011D7401F080069000F77401F09000FB
:1015DB00E8E0640160067834E6B401069001067415
:1015EB0001F0900106E06401703F90011D04F0D3FF
:1015FB0090011BE0942690011AE094024005E490C0
:10160B0000E8F07836E6B40104E47834F6E49001AF
:10161B0000F09000E8E070117834E6700C90010651
:10162B00F090010CF0A37428F0D390010DE094001E
:10163B0090010CE09400401890011D7401F0900192
:10164B000C74FFF5F012058A45F0700478A0760152
:10165B0090011DE0B40107E4900118F0A3F0900194
:10166B0018E0FEA3E0FF9000ECEEF0A3EFF0E490A7
:10167B000143F090013AF09000FDF0C3EF94EBEED4
:10168B009401401390011CE0700590013A04F09016
:10169B00011C7402F08014C39000EDE0944790009D
:1016AB00ECE094015005E490011CF090011CE0FF6C
:1016BB00B4020F90013AE0B4010F9001357401F0C0
:1016CB008007EF7004900135F09000F1E0B4010B4E
:1016DB00E4F090010004F09000FDF0900104E0B400
:1016EB000107E4F09000FD04F090013AE0B401072B
:1016FB00E4F09000FD04F09000FDE0B401069000D2
:10170B00FA7401F090011CE070049000FAF0900064
:10171B00FAE070121233687852E6D39400405CE41E
:10172B00900135F08055E49000FAF09001DBF090D9
:10173B0001D1F0A3F09001DCF07851F6784EF678F9
:10174B0062F67832F67829F67839F6784DE6784AEB
:10175B00F6783CE67833F67822E67859F67857E651
:10176B00784FF61233687852E6D394004007E49032
:10177B000135F080069001357401F0900135E0B42D
:10178B000111900118E0FEA3E0FF784BA60608A616
:10179B00078006E4784BF608F6C3784CE694EB1812
:1017AB00E664809481400C9001DBE0B40105760186
:1017BB000876EB784BE6FA08E6FBC3EA6480949074
:1017CB00400B78531208E8000003848065C3EB9448
:1017DB00EBEA648094814038784CE62415FF18E6D8
:1017EB0034FEFE3395E0FDFCE47B207A03F9F8121E
:1017FB0006EAE47B157A0EF9F8120775EF2464FFFD
:10180B00E43EFEE43DFDE43CFC78531208D080221C
:10181B00C3784CE6944718E664809481400B785368
:10182B001208E800000064800978531208E80000F1
:10183B000000E47FEBFEFDFC78531208C31206EAAE
:10184B00782B1208D0D390011BE094E890011AE09A
:10185B0094034032E47FE87E03FDFC78531208C307
:10186B001206EAC006C00790011AE0FEA3E0FFFBD8
:10187B00AA06E4F9F8D007D00612077590011EEE00
:10188B00F0A3EFF0800D78531208B790011EEEF025
:10189B00A3EFF090011EE0FEA3E0FFE4FCFD7B1440
:1018AB007A05F9F8C312082B500A90011E7405F043
:1018BB00A37414F022C0E0C0F0C083C082C0D07506
:1018CB00D000C000C001C002C003C004C005C006E8
:1018DB00C007904061E020E703021AF5904039E021
:1018EB004440F090010E7401F09002C5E0B407354E
:1018FB009040D8A3E025E0FF0582D5820215831521
:10190B0082E033900004F0A3EFF0900004E0FEA31C
:10191B00E0FFA3E0FCA3E0FD7B1412375B90000615
:10192B00EEF0A3EFF09002C5E0FF6401603FEF60C3
:10193B003C9040D4E0FEA3E0FF90000EE0FCA3E05F
:10194B00FD7B1E12375B90000EEEF0A3EFF0904084
:10195B00D6E0FEA3E0FF900016E0FCA3E0FD7B0ABF
:10196B0012375B900016EEF0A3EFF0800790000E9D
:10197B00E4F0A3F09040BAE0FEA3E0FF90001EE07D
:10198B00FCA3E0FD7B0A12375B90001EEEF0A3EF89
:10199B00F09040B8E0FEA3E0FF900020E0FCA3E055
:1019AB00FD7B0A12375B900020EEF0A3EFF0900363
:1019BB0006E0FEA3E07803C333CE33CED8F9FF9015
:1019CB0002B0E0FCA3E0FD7B3212375B9002B0EE7D
:1019DB00F0A3EFF0900304E0FEA3E07803C333CE53
:1019EB0033CED8F9FF9000DEEEF0A3EFF09000DEDF
:1019FB00E0FEA3E0FF900000E0FCA3E0FD7B3C12C7
:101A0B00375B900000EEF0A3EFF0900302E0FEA333
:101A1B00E07803C333CE33CED8F9FF9000E4EEF079
:101A2B00A3EFF09000E4E0FEA3E0FF9001AEE0FC3A
:101A3B00A3E0FD7B1412375B9001AEEEF0A3EFF049
:101A4B0090030EE0FEA3E07803C333CE33CED8F978
:101A5B00FF900034E0FCA3E0FD7B0A12375B9000A3
:101A6B0034EEF0A3EFF0D390020BE0940090020A57
:101A7B00E09400400CA3E024FFF090020AE034FF56
:101A8B00F0D3787EE6940018E69400400708E6163B
:101A9B00187001169000A2E0D394004003E014F0FC
:101AAB00D3900031E09400900030E09400400FA3FD
:101ABB00E024FFF0900030E034FFF0122D969002FE
:101ACB00C5E0B4071BD3900033E09400900032E0E4
:101ADB009400400CA3E024FFF0900032E034FFF0C0
:101AEB0012365F904061E0547FF0539F7F539FBF4E
:101AFB00539FDFD007D006D005D004D003D002D03F
:101B0B0001D000D0D0D082D083D0F0D0E032900280
:101B1B00C5E0FF64076008EF64086003021D1890BE
:101B2B000002E0FEA3E0FFEE6003021D18EF14605D
:101B3B0078147003021C6D24026003021D18904080
:101B4B00D4E0FEA3E0D39422EE648094825003028F
:101B5B001D189040947410F0A3E4F0A304F0A37448
:101B6B0047F075F50B75F450E4F5F7F5F6900002B8
:101B7B00F0A37402F0904092E0FFA3E0900008CF36
:101B8B00F0A3EFF0900008E0FEA3E0FF8EED8FECEA
:101B9B0075EF0675EE6675F30075F22890004074CC
:101BAB0002F090003F7405F02278461208B7AB079D
:101BBB00AA06A905A804C004C005C006C007782B57
:101BCB001208B7D003D002D001D000C3EF9BFFEEB9
:101BDB009AFEED99FDEC98FC9002741208DCE4FF80
:101BEB00FEFDFC900274E0F8A3E0F9A3E0FAA3E099
:101BFB00FBC31208154023E47F107E27FDFC9002E7
:101C0B0074E0F8A3E0A3E0A3E012081540329002C1
:101C1B00741209010000271080267FF07ED87DFF0B
:101C2B007CFF900274E0F8A3E0F9A3E0FAA3E0FBD9
:101C3B00D3120815500A900274120901FFFFD8F055
:101C4B00900274E0A3E0A3E0FEA3E0FF90027CEE21
:101C5B00F0A3EFF07C007D031205231238FA122F4C
:101C6B00B022900026E475F00112058AFEC3E5F060
:101C7B009405EE94005003021D18E4900026F0A387
:101C8B00F090000EE0FEA3E0FF7828E69FFF18E639
:101C9B009EFE3395E0FDFC9002781208DCE47F9801
:101CAB007E3AFDFC900278E0F8A3E0F9A3E0FAA3FA
:101CBB00E0FBD3120815400C90027E743AF0A3742B
:101CCB0098F0803B7F687EC57DFF7CFF900278E0BB
:101CDB00F8A3E0F9A3E0FAA3E0FBC3120815500C3C
:101CEB0090027E74C5F0A37468F08013900278E0C4
:101CFB00A3E0A3E0FFA3E090027ECFF0A3EFF09070
:101D0B00027EE0FEA3E0FF1238FA122FB0229002FF
:101D1B00C5E0B40C004003021EB8901D2CF8282817
:101D2B0073021D50021D8B021D9E021DBE021DD48F
:101D3B00021DEB021E02021E06021E34021EB80218
:101D4B001EB8021EA012362990025AE064016003ED
:101D5B00021EB89000D5E064016003021EB890002B
:101D6B0030E07002A3E06003021EB89002C504F0DD
:101D7B00904082E4F0A3F0A3F0A3F0A3F0A3F02231
:101D8B001238A69002C57402F090003014F0A374C0
:101D9B002CF02212285A900030E07002A3E060036E
:101DAB00021EB8C2FF9002C57403F0E4900030F03D
:101DBB00A3F0229002C57404F09002C2E054DFF04D
:101DCB0074FF90000CF0A3F022E490000CF0A3F051
:101DDB009002C57405F0900030E4F0A37464F02217
:101DEB00122F34900030E07002A3E06003021EB8A3
:101DFB009002C57406F022122BB6229000D5E0603B
:101E0B0003021EB89002C57408F0900030E4F0A3F2
:101E1B0074C8F0904092E4F0A3F0C2FF904062E0EF
:101E2B0054DFF09040A0E4F022900030E07002A369
:101E3B00E0707AC2FF9040A0F0904062E054DFF077
:101E4B0090405EE0FFA3E0904058CFF0A3EFF090FE
:101E5B00405CC083C082E0FFA3E054C0D082D0833B
:101E6B00CFF0A3EFF090405CC083C082E0FFA3E013
:101E7B004415D082D083CFF0A3EFF0904062E054B2
:101E8B00F7F0D2FF9002C5740BF09000307401F0A4
:101E9B00A37490F022900030E07002A3E0700EC2A9
:101EAB00FF904062E054DFF0E49002C5F022900115
:101EBB00DBE06003021FA39040D4E0FEA3E0D378E5
:101ECB004096EE189650439001E5E004F0C394055C
:101EDB00400E7405F0E49001D0F09001EEF0A3F009
:101EEB009001D9E475F00112058AFEC3E5F0942C3C
:101EFB00EE94015003021FCA9001D97401F0A37430
:101F0B002CF0E49001DCF0021FCA9001D0E004F049
:101F1B00C39405400E7405F0E49001E5F09001D9EF
:101F2B00F0A3F09001DCE070259001EE75F001124A
:101F3B00058AFED3E5F094C8EE940040359001EE8F
:101F4B00E4F0A374C8F09001DB7401F080249001DD
:101F5B00EEE475F00112058AFED3E5F0940AEE94D7
:101F6B0000400F9001EEE4F0A3740AF09001DB74D3
:101F7B0001F09001DBE064017045A3E004F0D39421
:101F8B0000403CE4F09001DBF078517601900103C6
:101F9B007403F01238C380279001DBE0B40120906A
:101FAB0001D1E475F00112058AFEC3E5F09432EE1F
:101FBB009400400BE49001D1F0A3F09001DBF09082
:101FCB0040D4E0FEA3E0D39400EE9460403B90013C
:101FDB002AE094F4900129E0940140349001E6E466
:101FEB0075F00112058AFED3E5F09464EE9400407F
:101FFB001FE49001E6F0A3F0785176019001037491
:10200B0002F01238C31235F222E49001E6F0A3F08D
:10201B00229002C5E06407600302217DD39000C6C5
:10202B00E094E89000C5E0648094835045A3E004FD
:10203B00F070069000C5E004F0D390000FE09471AF
:10204B0090000EE0648094DC4028900017E094141C
:10205B00900016E09400501AE49000C5F0A3F078BD
:10206B009076017832760190012B04F01238C3126E
:10207B0035F2D39000C0E094E89000BFE064809408
:10208B00834003022135A3E004F070069000BFE00B
:10209B0004F09000C2E004F070069000C1E004F080
:1020AB00C39000C2E094DC9000C1E0648094855042
:1020BB000302213C7405F0A374DCF0900017E0944C
:1020CB0005900016E0940050429000BEE004F070C2
:1020DB00069000BDE004F0C39000BEE094149000A5
:1020EB00BDE0648094804049E49000C1F0A3F0907F
:1020FB0000BDF0A3F0789076027832760190012B38
:10210B007402F01238C31235F28026D39000BEE071
:10211B0094009000BDE0648094804015A3E024FF00
:10212B00F09000BDE034FFF08007E49000BDF0A319
:10213B00F0900002E07002A3E070379000C4E0045E
:10214B00F070069000C3E004F0C39000C4E09490DC
:10215B009000C3E0648094814018E4F0A3F0789081
:10216B0076037832760190012B7403F01238C31288
:10217B0035F2229040CAE0FFA3E09001D3CFF0A349
:10218B00EFF09040C8E0FFA3E09001D5CFF0A3EFB4
:10219B00F09001D3E0FAA3E0FBC3E49BFFE49AFECB
:1021AB00A3E0FCA3E0FDC3EF9DFFEE9CA3F0A3EF28
:1021BB00F0C3EA6480948040119001D3E0FEA3E069
:1021CB00FF7882A60608A60780149001D3E0FEA331
:1021DB00E0FFC3E49FFFE49E7882F608A607C3ECFA
:1021EB006480948040097884A60408A605800CC3FB
:1021FB00E49DFFE49C7884F608A6079001D7E0FEE7
:10220B00A3E0FFC3EE6480948040097886A606089D
:10221B00A607800CC3E49FFFE49E7886F608A6070A
:10222B007882E6FE08E6FF9001EAEEF0A3EFF008F5
:10223B00E6FC08E6FDC3EF9DEE9C50089001EAEC2E
:10224B00F0A3EDF07886E6FE08E6FFC39001EBE025
:10225B009F9001EAE09E5005EEF0A3EFF09001EAAB
:10226B00E0FEA3E0FFC39001EDE09FEE6480F890E9
:10227B0001ECE06480985005EEF0A3EFF0D3EF94FF
:10228B00FAEE64809496402B90012AE094F490012E
:10229B0029E09401402A788106E6940840227822AE
:1022AB0076017859760190012F7401F01238C31220
:1022BB0035F222E47822F67881E6D39400400116B9
:1022CB0022904062E054DFF0E04420F09040A0E424
:1022DB00F0A3F0904090F0A3F0A3F0A3F09040CCCB
:1022EB00F0A3F09040AAF0A3F09040A8F0A3F090D8
:1022FB0040ACF09040AE04F0A3746CF09040AD7421
:10230B0002F09040B0743FF0A374FFF0A374C0F0E0
:10231B00A37401F0A3747EF0A374B7F0A37481F0DF
:10232B00A37449F090408C745BF0A374CAF0A3744F
:10233B0014F0A374D3F09040887449F0A374CAF0DE
:10234B00A3E4F0A3F09040807420F0A3E4F090405D
:10235B007EF0A37480F090407C74C9F0A3740EF0EF
:10236B009040A3E4F09040A1E0547FF0904078744B
:10237B006CF0A374CBF0A37404F0A37477F09040CB
:10238B00A0E04401F09000DAE0B40109904062E073
:10239B004440F08007904062E054BFF0904062E010
:1023AB0054BFF0300604E04440F09040A0E054F3FA
:1023BB00F09040A274C4F09040A57415F09040A129
:1023CB00E054DFF053D69F90025AE0B401169040D0
:1023DB00A1E054F3F0900252E0FFA3E09040A6CFAF
:1023EB00F0A3EFF0904062E04408F0229002C5E0C9
:1023FB006407600302251DD39000A8E094E89000C9
:10240B00A7E09403500DA3E004F070069000A7E042
:10241B0004F022900016E0FEA3E0FFC3940AEE94B2
:10242B000040199040D4E0FCA3E0D39491EC64807D
:10243B009480403DEF9428EE940050359000AAE034
:10244B0004F070069000A9E004F0C39000AAE09499
:10245B000A9000A9E094004033E4F0A3F07893765F
:10246B000190012804F07862F61238C31235F2801D
:10247B001BD39000AAE094009000A9E09400400CBC
:10248B00A3E024FFF09000A9E034FFF090000EE0F1
:10249B00FEA3E0FFC39438EE6480948E400BD3EF21
:1024AB00948DEE648094E3404E9000ACE004F070A9
:1024BB00069000ABE004F0C39000ACE094089000F1
:1024CB00ABE09400404CE4F0A3F0789376029000DC
:1024DB000FE0943890000EE06480948E50089001C9
:1024EB00287402F080069001287403F0786276015C
:1024FB001238C31235F222D39000ACE09400900056
:10250B00ABE09400400CA3E024FFF09000ABE03470
:10251B00FFF022E49002C6F0A3F09002C6E475F03F
:10252B00011205A0FEC3E5F09410EE942740EB7F5B
:10253B0030EFC394FF5007A807E4F60F80F3E4FFD6
:10254B00FED3EF94FFEE9402500D8F828E83E4F056
:10255B000FEF70010E80EA78FFE4F612275F122D61
:10256B0002E49002C5F090008BF01226421237DF86
:10257B001238691239561235781233C01238DF12FD
:10258B0030A312391212330C20951C209319D20B45
:10259B00789D760178A9760178A3760178B57601D6
:1025AB00E478B0F678BBF612380412372C123924C3
:1025BB0090025AE0702212294090025AE0B401F0C6
:1025CB00E4900258F0A3F0900252E0FFA3E09001D8
:1025DB0023CFF0A3EFF080D890010EE0B401D1E44B
:1025EB00F01210501209BF900134E0B40105E4F071
:1025FB001214EB784BE6FE08E6FFC394EBEE648017
:10260B00948140109000D57401F09000C9E4F0A3C0
:10261B0004F08016C3EF9447EE64809481500BE472
:10262B009000D5F09000C9F0A3F0121D19121B19E0
:10263B00122EAE0225BB22C2AF9002A6E0600302AF
:10264B00275E04F0E4900286F0900286E0C39404C7
:10265B005023E0FF2400FDE4343E8D82F583E493A8
:10266B00FE74AC2FF582E43402F583EEF090028613
:10267B00E004F080D49002ACE064A560199002A74E
:10268B00E4F0A304F01239321232509002A9740212
:10269B00F0A37408F0229002A97401F0900286F066
:1026AB00900286E0FFD3941E5025EF75F004A4240E
:1026BB0000FFE5F0343E8F82F583E493B4A50890D8
:1026CB000286E09002A9F0900286E004F080D1909F
:1026DB0002A9E0FD25E025E0FFA3F0FC9002AFE0AE
:1026EB00FE9002AEE07A002400FFEA3E9002A7F0D3
:1026FB00A3EFF0ECFF7E002401FBEE343E8B82F562
:10270B0083E493789DF6EF2402FFEE343E8F82F53F
:10271B0083E49378A3F6EC2403FFEE343E8F82F52B
:10272B0083E49378B0F6EDC3941E401C9002A8E0AE
:10273B0004F070069002A7E004F01232509002A948
:10274B007402F0A37408F0229002A9E004F0A3E055
:10275B002404F0227E007F397D007B017A00799082
:10276B0012095F7E007F0C7D007B007A00798E1250
:10277B00095F7E007F0D7D007B007A007981120955
:10278B005F7E007F097D007B017A00796012095F13
:10279B007E007F457D007B017A00790012095F7E08
:1027AB00007F087D007B017A0079DE12095F7E00D5
:1027BB007F157D007B017A02794612095F900248F2
:1027CB0012090100003FFF90024E12090100003F69
:1027DB00FF90025412090100003FFF7E007F077D2E
:1027EB00007B017A00798412095F9000877413F0E3
:1027FB00A37487F07E007F0F7D007B017A0079C97F
:10280B0012095F9000D3E4F0A304F07E007F1B7DE0
:10281B0000FB7A00794512095F7E007F397D007BD2
:10282B00017A01794412095F7E007F097D007B01EB
:10283B007A00797B12095FE49002C2F09000DDF020
:10284B009000DAF09000D87414F0A37478F0229012
:10285B0002C2E020E134E04402F090405EE0FCA3D1
:10286B00E0FDE412039A7BCD7ACC79CC783D120152
:10287B00761203D3904058EEF0A3EFF0904062E055
:10288B0054F7F0E490002EF0A3F0C3900031E094E5
:10289B002C900030E09401502990002EE07002A3A0
:1028AB00E0701F90002EF0A304F090405CC083C03A
:1028BB0082E0FFA3E04401D082D083CFF0A3EFF0FE
:1028CB00D2FFD3900031E094C8900030E0940050D8
:1028DB002A90002EE07004A3E06401701E90002E7D
:1028EB00F0A37402F090405CC083C082E0FFA3E0D1
:1028FB004404D082D083CFF0A3EFF0D3900031E02B
:10290B009464900030E09400502A90002EE0700404
:10291B00A3E06402701E90002EF0A37403F09040AD
:10292B005CC083C082E0FFA3E04410D082D083CF91
:10293B00F0A3EFF02290025AE06003022A139040BA
:10294B0039E04440F0904039E020E6F9900254E041
:10295B00F8A3E0F9A3E0FAA3E0FBC000C001C002BA
:10296B00C003900308E0540FFEA3E07803C333CEFB
:10297B0033CED8F9FFE4FCFDD003D002D001D00058
:10298B00EB2FFFEA3EFEED39FDEC38FC90025412C2
:10299B0008DC900254E0FCA3E0FDA3E0FEA3E0FF03
:1029AB00780412084F900252EEF0A3EFF0A3E0FC74
:1029BB00A3E0FDA3E0FEA3E0FFC006C00790025218
:1029CB00E0FEA3E0FFFBAA06EA3395E0F9F8D00797
:1029DB00D006C3EF9BFFEE9AFEED99FDEC98FCA39E
:1029EB001208DC900259E004F07006900258E004E3
:1029FB00F0D3900259E094D0900258E06480948711
:102A0B00400690025A7401F022782FE6FE08E6FF8A
:102A1B00D39437EE940D4003022ADDEF9421EE940C
:102A2B000A402318E6FC08E6FD90028C740DF0A317
:102A3B007437F07B217A0A7F327E001236957860EC
:102A4B00A60608A60722782FE6FC08E6FDD394BA63
:102A5B00EC9406401D90028C740AF0A37421F07B59
:102A6B00BA7A067F4B7E001236957860A60608A6CA
:102A7B000722782FE6FC08E6FDD39415EC9404406E
:102A8B001D90028C7406F0A374BAF07B157A047F48
:102A9B00647E001236957860A60608A60722782F6A
:102AAB00E6FC08E6FDD3946AEC9402401D90028C80
:102ABB007404F0A37415F07B6A7A027F7D7E00129A
:102ACB0036957860A60608A6072278607600087609
:102ADB007D22786076000876192278B9E6FE08E642
:102AEB00FFD394E7EE940C4003022BAEEF9496EEDB
:102AFB009409402318E6FC08E6FD90028C740CF058
:102B0B00A374E7F07B967A097F327E0012369578B4
:102B1B00AEA60608A6072278B9E6FC08E6FDD39414
:102B2B0011EC9406401D90028C7409F0A37496F07E
:102B3B007B117A067F4B7E0012369578AEA606087F
:102B4B00A6072278B9E6FC08E6FDD39478EC94034B
:102B5B00401D90028C7406F0A37411F07B787A03FD
:102B6B007F647E0012369578AEA60608A6072278FB
:102B7B00B9E6FC08E6FDD394EBEC9401401D900202
:102B8B008C7403F0A37478F07BEB7A017F7D7E006D
:102B9B0012369578AEA60608A6072278AE76000800
:102BAB00767D2278AE7600087619229002C2E0304C
:102BBB00E403022C46E04410F09040CCE4F0A3F088
:102BCB009040CCE0FEA3E024CDFFEE34ECA3F0A3C9
:102BDB00EFF09040CEE0FFA3E09002C3CFF0A3EF65
:102BEB00F0904090E4F0A3F09000087408F0A37408
:102BFB00B4F0904094740CF0A374CCF0A3E4F0A365
:102C0B007462F09040747402F0A37490F0A3E4F03B
:102C1B00A3740BF0904082E4F0A3741EF0A3E4F0D5
:102C2B00A374DAF0A37401F0A3746CF09040A0E0ED
:102C3B004440F0E054DFF0E04410F0900030E4F05A
:102C4B00A37478F09002C57407F0900008E0FFA31E
:102C5B00E0904092CFF0A3EFF022C0E0C0F0C08331
:102C6B00C082C0D075D000C000C001C002C003C07C
:102C7B0004C005C006C007E5D730E7609002C5E089
:102C8B006404600C1238C31235F2784E7601804919
:102C9B00C2FF9001A2E0FF25E0248EF582E434010F
:102CAB00F583E5ABF0A3E5AAF0EF25E0248EF582E2
:102CBB00E43401F583E0FEA3E0FF9001A2E025E000
:102CCB00247EF582E43401F583EEF0A3EFF0E4F516
:102CDB00ABF5AA9001A2E004F053D77FD007D00642
:102CEB00D005D004D003D002D001D000D0D0D082F8
:102CFB00D083D0F0D0E0327E007F197D007B017A4B
:102D0B0002792B12095FE49002C8F0FF7E3F123567
:102D1B00369002C9EFF064116037E0FF6421603137
:102D2B00EF6441602CEF64126027EF64226022EFA6
:102D3B006442601DEF64146018EF64246013EF6449
:102D4B0044600EEF64186009EF64286004EFB44828
:102D5B001C9002C9E090023FF0540F900230F090AB
:102D6B0002C9E05470900231F0E4A3F022900230DB
:102D7B007401F0A37410F0E4A3F0900231E0FF9023
:102D8B000230E06F90023FF0A3F0229002C5E064A6
:102D9B00076003022E21900030E0FEA3E0FFB42C6D
:102DAB0016EEB401129040747402F0A374D9F0A320
:102DBB00E4F0A3740EF022EF64C84E7012904074CE
:102DCB007403F0A37422F0A3E4F0A37411F022EFC8
:102DDB0064964E70129040747403F0A374FCF0A3CD
:102DEB00E4F0A3741CF022EF64644E7012904074F4
:102DFB007405F0A374B2F0A3E4F0A37439F022EFDE
:102E0B0064324E70119040747408F0A3748BF0A36D
:102E1B00E4F0A37480F022787FE4F6D8FD7581DBB3
:102E2B00022E6902251EE493A3F8E493A34003F654
:102E3B008001F208DFF48029E493A3F85407240CF3
:102E4B00C8C333C4540F4420C8834004F4568001D4
:102E5B0046F6DFE4800B0102040810204080903717
:102E6B00B5E47E019360BCA3FF543F30E509541FCA
:102E7B00FEE493A360010ECF54C025E060A840B8D8
:102E8B00E493A3FAE493A3F8E493A3C8C582C8CA56
:102E9B00C583CAF0A3C8C582C8CAC583CADFE9DE29
:102EAB00E780BE900106E0B4010E9002C5E0700809
:102EBB009002A5E0700204F09002A5E06401703E60
:102ECB007402F0200B38C2AF9002A9E0D3941E40DD
:102EDB001D9002A8E004F070069002A7E004F01227
:102EEB0032509002A97402F0A37408F0800E1234D1
:102EFB005E9002A9E004F0A3E02404F0D2AF9002AC
:102F0B00A5E0B40223900106E0701D9002A5F030FD
:102F1B000B16789D760178A9760178A3760178B5A2
:102F2B00760178B0F678BBF6229002C2E020E2740C
:102F3B00E04404F01222CC904090E4F0A3F0A37490
:102F4B0003F0A3740BF0A37410F0A3E4F0A3F0A3AD
:102F5B007428F09040747402F0A37490F0A3E4F022
:102F6B00A3740BF09040CCE4F0A3F09040CCE0FEC7
:102F7B00A3E02400FFEE34F0A3F0A3EFF09040CCDD
:102F8B00E0FFA3E09002C3CFF0A3EFF090405CC052
:102F9B0083C082E0FFA3E0443FD082D083CFF0A375
:102FAB00EFF0D2FF2290408EE0FEA3E0C394E6EE5A
:102FBB0064809498502790408EE0FFA3E090001B14
:102FCB00CFF0A3EFF0E0240AF090001BE03400F008
:102FDB00E0FFA3E090408ECFF0A3EFF02290408E65
:102FEB00E0FEA3E0D394FAEE6480949840279040DF
:102FFB008EE0FFA3E090001BCFF0A3EFF0E024F6F0
:10300B00F090001BE034FFF0E0FFA3E090408ECF88
:10301B00F0A3EFF02290408E7418F0A374F0F0221E
:10302B0090011EE0FEA3E0FF900131E0FCA3E0FD68
:10303B00C39FEC9E501CE0240AF0900131E0340059
:10304B00F0D3A3E09F900131E09E404BEEF0A3EF55
:10305B00F022D3ED9FEC9E403ED3900132E0940AD8
:10306B00900131E09400400EA3E024F6F090013182
:10307B00E034FFF08007E4900131F0A3F090011EE3
:10308B00E0FEA3E0FFC3900132E09F900131E09E90
:10309B005005EEF0A3EFF022D20F7F011234A9906E
:1030AB004052E04420F0904039E04480F090404F93
:1030BB00E04410F0E4FFFEC3EF94D0EE940750070A
:1030CB000FEF70010E80F0904052E04410F09040F2
:1030DB0051E044B8F0904036C083C082E0FFA3E0DB
:1030EB00449ED082D083CFF0A3EFF0904036C083C4
:1030FB00C082E04430FFA3E0D082D083CFF0A3EFB7
:10310B00F09040387433F0A3E054FCF0228F828EA1
:10311B0083E0F5C78F828E83A3E0F5C68F828E8303
:10312B00A3A3E0F5C58F828E83A3A3A3E0F5C48D83
:10313B00828C83E0F5CDAE04AF058F828E83A3E046
:10314B00F5CC43C101E5C130E703D38001C350F592
:10315B007B017A027980E5C785C6F012069E740260
:10316B0029F9E43AFAE5C585C4F012069E9002806F
:10317B00E0FCA3E0FDA3E0FEA3E0FF227E007F398D
:10318B007D007B017A00799012095F7E007F457D7F
:10319B00007B017A00790012095F7E007F077D00BA
:1031AB007B017A00798412095F9000877413F0A376
:1031BB007487F07E007F247D007B017A0179AA124F
:1031CB00095FE49002C2F090008C1209013F333387
:1031DB0033E4900242F09000327403F0A374E8F0F1
:1031EB0022785EE6FE08E6FFC37828E69FEE648051
:1031FB00F5F018E6648095F0502008742426F61834
:10320B00E436F6D308E69FEE6480F5F018E66480AA
:10321B0095F04030A60608A60722782874DC26F61F
:10322B001874FF36F6C308E69FEE6480F5F018E6D7
:10323B00648095F0500E785EE6FE08E6FF7827A6D0
:10324B000608A607227F007E3E1236C97DA57F00A9
:10325B007E3E1236FB7D5A7F017E3E1236FB90027C
:10326B00A7E0A3E0FD7F027E3E1236FB9002A7E0B3
:10327B00FD7F037E3E1236FB7DA57F047E3E12361C
:10328B00FB789DE6FD7F057E3E1236FB78A3E6FDBF
:10329B007F067E3E1236FB78B0E6FD7F077E3E1240
:1032AB0036FB22A807E6F5C7E804F8E6F5C6EF24D7
:1032BB0002F8E6F5C5EF2403F8E6F5C4A805E6F534
:1032CB00CDE804F8E6F5CC43C101E5C130E703D303
:1032DB008001C350F57B017A027980E5C785C6F082
:1032EB0012069E740229F9E43AFAE5C585C4F01278
:1032FB00069E900280E0FCA3E0FDA3E0FEA3E0FFAE
:10330B002290405E7401F0A374F4F0A37418F09053
:10331B004062E04404F090405CC083C082A3E05460
:10332B003FFFD082D083E4F0A3EFF053F8C090407E
:10333B0061E054EFF0E054FC4402F090405AE4F0AA
:10334B00A374FAF0D2BFC2BE904061E04404F0A374
:10335B00E04480F0E054EFF0E04401F0227832E6F4
:10336B00FFC4333354C0FF7862E6FEC433333354A7
:10337B00802FFF7851E6FEC43354E02FFF784FE6E1
:10338B00FEC454F02FFF784AE6FE33333354F82F44
:10339B00FF7833E6FE25E025E02FFF7859E6FE2582
:1033AB00E02F784E267952F77839E6FF25E0782919
:1033BB00267935F722904053E04420F0E04440F06A
:1033CB0043FF40D2B643FF80D2B743FC01D28043C8
:1033DB00FC02D28143FC04D28243FC08D28343FD1E
:1033EB0001A3E04401F0D29043FD02E04402F0D28D
:1033FB009153FD7FE04480F053FDDFE04420F05318
:10340B00FDF7E04408F022C0E0C0F0C083C082C0EA
:10341B00D075D000C000C001C002C003C004C005FD
:10342B00C006C007904061E030E40D1235B71221A1
:10343B007E904061E054EFF0D007D006D005D00469
:10344B00D003D002D001D000D0D0D082D083D0F026
:10345B00D0E0329002AAE02400FFE4343EFE7DA5CA
:10346B001236FB009002AAE02401FFE4343EFE7802
:10347B009DE6FD1236FB009002AAE02402FFE43425
:10348B003EFE78A3E6FD1236FB009002AAE0240371
:10349B00FFE4343EFE78B0E6FD1236FB0022EF145B
:1034AB00601314601B1460232403702690404FE0BC
:1034BB00543FF0801D90404FE0543F4440F0801249
:1034CB0090404FE0543F4480F0800790404FE044E1
:1034DB00C0F090404FE054EFFF300F047E1080029D
:1034EB007E00EF4E90404FF022C0E0C0F0C083C092
:1034FB0082C0D075D000C000C001C002C003C004A0
:10350B00C005C006C0071238C31235F2784E7601DB
:10351B00D007D006D005D004D003D002D001D00004
:10352B00D0D0D082D083D0F0D0E032AD07AC06E45F
:10353B00FFEFC394805033EF2DFBE43C8B82F5837C
:10354B00E493FE701BEF601524FFFBE434FFFAEBF2
:10355B002DFBEA3C8B82F583E493FEFF227F002256
:10356B00EFB47F03AF06220F80C77F00229040513C
:10357B00E04480F053D69FE04440F043FE4090403F
:10358B0035E054BFF090404B74C4F0904035E044AC
:10359B0080F043D60853D9FBE5D954E74408F5D955
:1035AB00E5D954FC4403F5D943D6102290005FE0D3
:1035BB00B401147F4B7D531232AE900055EEF0A345
:1035CB00EFF0E490005FF0900018E0B401187E007B
:1035DB007F107C007D16123118900019EEF0A3EFCE
:1035EB00F0E4900018F0229000F0E0703004F0C38B
:1035FB0090012AE094C4900129E09409501C900199
:10360B003CE0C3940250139000FBE07002A3E07007
:10361B000C9000FBF0A3740AF02212393F229002A7
:10362B00C2E020E02EE04401F0904062E054DFF075
:10363B00C2FF904036C083C082E0FFA3E0449FD01E
:10364B0082D083CFF0A3EFF0E490025AF0900258AF
:10365B00F0A3F0229002C5E0B4032EC390021BE04E
:10366B0094FA90021AE09400500DA3E004F0700657
:10367B0090021AE004F022E4900214F0A3F09002FE
:10368B001AF0A3F090022104F022900286EEF0A330
:10369B00EFF0C3ED9BFFEC9AFE7C007D1912052326
:1036AB00C390028DE09BFD90028CE09AFC120535D5
:1036BB00C3900287E09FFF900286E09EFE22A2AF9E
:1036CB00920FC2AFC3EF9480EE943F5014758503F5
:1036DB0075845A75841F008F828E8374A5F075854F
:1036EB0008A20F92AFE58530E4037F01227F002211
:1036FB00A2AF920FC2AFC3EF9480EE943F501375FD
:10370B00850175845A75841F008F828E83EDF07549
:10371B008508A20F92AFE58530E4037F01227F007D
:10372B00227844760008765A7842760008760A7832
:10373B003F7660087600785A1208E800020F587836
:10374B0037765C0876719001147410F0A3E4F022C4
:10375B00900284EEF0A3EFF0AF038FDD900284E0D4
:10376B00FEA3E0FF8EDF8FDEAE04AF058EE78FE6A4
:10377B0043F9010000000000AFE6AEE72275EF044D
:10378B0075EECC75F30075F228E4F5EBF5EA53F919
:10379B00FB43F90275F50B75F450F5F7F5F60000E0
:1037AB000000F5EDF5EC53F9FD224802B2000000E4
:1037BB00000000000044008C3F333333C10BC18148
:1037CB00C1824101F0004101F100C10E010A00412B
:1037DB0001A90000789DE6FF6005C3947D40047845
:1037EB009D7601789DE6FFD3943F500578A9A607F7
:1037FB0022C3747E9F78A9F62253FEFE904055E0BB
:10380B0054FEF0904051E054FEF053D4FE43D301EC
:10381B00C28CC28BC2BDD2BCD2AAD2AF22C0D075D1
:10382B00D000C000C28A783B760178A4760153D4CD
:10383B00FEA2019291A2029290D000D0D032C0E0B1
:10384B00E59D30E703539D7FE59D30E603539DBF18
:10385B00E59D30E506539DFE539DDFD0E03278A306
:10386B00E6C394084002E4F678A3E6FFD394045031
:10387B000578B5A60722C374089F78B5F622C0E079
:10388B00E5A930E70353A97FE5A930E60353A9BFA8
:10389B00E5A930E50353A9DFD0E032904036C08371
:1038AB00C082E0FFA3E054EED082D083CFF0A3EF31
:1038BB00F012318712378822C2FF904062E054DF4A
:1038CB00F0E49002C5F0900135F0784BF608F690D5
:1038DB000100F02290404FE04401F0904051E04451
:1038EB0080F0A3E04403F090404EE04401F0228EC0
:1038FB00EB8FEA43F902000000000000904092E5D4
:10390B00EDF0A3E5ECF02253D77FE5D5543F4440CF
:10391B00F5D5D2C7D2C6D2AF22C2CDD2CCD2AF90C0
:10392B004061E04440F022789D760178A37601E473
:10393B0078B0F622E49000F0F09000FBF0A3F022B8
:10394B00309802C298309902C2993278B0E678BBAF
:02395B00F62252
:00000001FF
