:10000000022E1702000632323232320234E9323224
:0100100032BD
:0300130002381D93
:03001B00023407A5
:0300230002387E22
:03002B00020007C9
:03003300020008C0
:03003B00022C5A3A
:03004300020009AF
:03004B0002383E3A
:030053000218B5DB
:03005B0002000A96
:030063000239401F
:03006B0002000E82
:0300730002000F79
:10007B0002001002043FE86480F8E933E8336011B2
:10008B000460F0ED33EC337009E8FCE9FDEAFEEBBC
:10009B00FF220460DED3EB9FEA9EE99DE8C2E78C6A
:1000AB00F0C2F795F0400CE8CCF8E9CDF9EACEFABE
:1000BB00EBCFFB12040A85D0F05804700320D5B3A4
:1000CB00E80470075002B2D502044992D5EC0460E3
:1000DB00F7E4CCC0E0C398F8603B94186008400D7F
:1000EB00D0E0FB020421E4FBFAC9FC8028E830E4F1
:1000FB0006E4C9FBE4CAFCE830E305E4C9CACBFC5F
:10010B00E854076010F8C3E913F9EA13FAEB13FB91
:10011B00EC13FCD8F130F52FC3E49CFCEF9BFFEE06
:10012B009AFEED99FDD0E0FBEF4E4D4C701222DBA9
:10013B0003020446EC2CFCEF33FFEE33FEED33FDF4
:10014B00ED30E7EB020421EF2BFFEE3AFEED39FD2C
:10015B00D0E0FB50130BBB0003020449ED13FDEE83
:10016B0013FEEF13FFEC13FC020421EC4D6011E8BE
:10017B00497017ED33EC3304600DE4FCFFFEFD22F8
:10018B00E933E8330470F802043F12040A580460A0
:10019B0009E4CC2481500628500902044928400365
:1001AB00020446C0E0EB4A7044B98006D0E0FB0283
:1001BB000435EF4E701CBD8008EBFFEAFEE9FD80B5
:1001CB00EBE98DF0A4FEE5F002025FE9CDF9EAFE62
:1001DB00EBFFEF89F0A4FCE5F0CE89F0A42EFFE451
:1001EB0035F0CD89F0A42DFEE435F08067EF4E702D
:1001FB0005BD80D780C3EF8BF0A4ACF0EE8BF0A4E1
:10020B002CFCE435F0F8EF8AF0A42CE5F038FCE494
:10021B0033CB8DF0A42CFCE5F03BF8EE8AF0A42C4C
:10022B00FCE5F038F8E433CF89F0A42CFCE5F0388A
:10023B00CF3400CE89F0A42FFFE5F03EFEE433C9A6
:10024B008DF0A42EFEE5F039CD8AF0A42FFFE5F05A
:10025B003EFEE43DFD33D0E0FB50070BBB000F022D
:10026B000449EC2CFCEF33FFEE33FEED33FD0204BF
:10027B0021020449EC5D046005E859047003020493
:10028B003F12040A580460F6EC4860F2EC7004FD6F
:10029B00FEFF22C860DB2481C85009C3986002505E
:1002AB00060204469850CAF582E9294B4A7005AB01
:1002BB008202043575F0007C1A7880C3EF9BEE9AAE
:1002CB00ED99400DC3EF9BFFEE9AFEED99FDE842D1
:1002DB00F0DC23ACF0D0E0FFD0E0FED0E0FDAB8251
:1002EB0020E7101BEB60BAEC2CFCEF33FFEE33FE78
:1002FB00ED33FD020421E803F830E705C0F075F09B
:10030B0000EF2FFFEE33FEED33FD40B830E7C28038
:10031B00AA74F8CC6480CCC86480C8F58204604FA2
:10032B00C3EB9FF5F0EA9E42F0E99D42F0E89C4555
:10033B00F0603C501DE5825FFFE582D313CB5BCBB6
:10034B00F42B5582FB50280ABA002409B900200867
:10035B00801DE5825BFBE582D313CF5FCFF4C31324
:10036B002F5582FF50090EBE00050DBD00010CC3B9
:10037B00EB9FF5F0EA9E42F0E99D42F0E89C45F0D8
:10038B006007CC4820E701B3EC2275F020800E7596
:10039B00F010800575F0087D007E007F003392D54C
:1003AB0030D503120807EC334010EF33FFEE33FE6A
:1003BB00ED33FDEC33FCD5F0ED22E5F0247EA2D538
:1003CB0013CC92E7CDCEFF22EDD2E7CD33EC3392B7
:1003DB00D524814006E4FFFEFDFC22FCE4CFCECD0C
:1003EB00CC24E0501174FF80EDC3CC13CCCD13CDD6
:1003FB00CE13CECF13CF0470F030D5DE020807E951
:10040B00D2E7C933E833F892D5EDD2E7CD33EC33ED
:10041B00FC5002B2D522EC30E7100FBF000C0EBE21
:10042B0000080DBD00040BEB6014A2D5EB13FCED23
:10043B0092E7FD2274FFFCFDFEFF22E480F8A2D5BB
:10044B0074FF13FC7D80E480EFBB010689828A83F5
:10045B00E0225002E722BBFE02E32289828A83E478
:10046B009322BB010CE58229F582E5833AF583E003
:10047B00225006E92582F8E622BBFE06E92582F822
:10048B00E222E58229F582E5833AF583E49322BBE8
:10049B00010989828A83F8E028F022500327F7228A
:1004AB00BBFE05F8E328F3228A838982F8E49328BC
:1004BB0022BB010FF8E58229F582E5833AF583E04B
:1004CB0028F0225009C58229F8E58226F622BBFEC8
:1004DB0009C58229F8E22582F222F8EA2583F58301
:1004EB00E9932822BB010689828A83F0225002F706
:1004FB0022BBFE01F322F8BB010DE58229F582E553
:10050B00833AF583E8F0225006E92582C8F622BB30
:10051B00FE05E92582C8F222EF8DF0A4A8F0CF8C5E
:10052B00F0A428CE8DF0A42EFE22BC000BBE002919
:10053B00EF8DF084FFADF022E4CCF875F008EF2FCF
:10054B00FFEE33FEEC33FCEE9DEC984005FCEE9D8C
:10055B00FE0FD5F0E9E4CEFD22EDF8F5F0EE8420A8
:10056B00D21CFEADF075F008EF2FFFED33FD400709
:10057B00985006D5F0F222C398FD0FD5F0EA22C5AC
:10058B00F0F8A3E028F0C5F0F8E5821582700215AB
:10059B0083E038F022A3F8E0C5F025F0F0E58215F2
:1005AB008270021583E0C838F0E822BB010A898209
:1005BB008A83E0F5F0A3E022500687F009E71922C1
:1005CB00BBFE07E3F5F009E3192289828A83E493E2
:1005DB00F5F074019322BB0110E58229F582E583C6
:1005EB003AF583E0F5F0A3E0225009E92582F8867D
:1005FB00F008E622BBFE0AE92582F8E2F5F008E2F4
:10060B0022E5832AF583E993F5F0A3E99322BB0155
:10061B000789828A8302058A500B09C5F027F7C523
:10062B00F01937F722BBFE0D09F8E325F0F3C5F0FF
:10063B0019E338F322F889828A8374019325F0C574
:10064B00F0F8E4933822BB010DC58229C582C5831E
:10065B003AC58302058A5011C58229F808E5F026B0
:10066B00F618F5F0E58236F622BBFE11C58229F8A5
:10067B0008E225F0F5F0F218E23582F222F8E58275
:10068B0029F582E5832AF58374019325F0F5F0E4CF
:10069B00933822BB010A89828A83F0E5F0A3F0220A
:1006AB005006F709A7F01922BBFE06F3E5F009F394
:1006BB001922F8BB0111E58229F582E5833AF5830E
:1006CB00E8F0E5F0A3F0225009E92582C8F608A668
:1006DB00F022BBFE09E92582C8F2E5F008F222E818
:1006EB008FF0A4CC8BF0A42CFCE98EF0A42CFC8A0C
:1006FB00F0EDA42CFCEA8EF0A4CDA8F08BF0A42D89
:10070B00CC3825F0FDE98FF0A42CCD35F0FCEB8E29
:10071B00F0A4FEA9F0EB8FF0A4CFC5F02ECD39FEDF
:10072B00E43CFCEAA42DCE35F0FDE43CFC2275F054
:10073B0008758200EF2FFFEE33FECD33CDCC33CCDB
:10074B00C58233C5829BED9AEC99E58298400CF5F6
:10075B0082EE9BFEED9AFDEC99FC0FD5F0D6E4CE24
:10076B00FBE4CDFAE4CCF9A88222B800C1B9005958
:10077B00BA002DEC8BF084CFCECDFCE5F0CBF97825
:10078B0018EF2FFFEE33FEED33FDEC33FCEB33FBB9
:10079B0010D703994004EB99FB0FD8E5E4F9FA2243
:1007AB007818EF2FFFEE33FEED33FDEC33FCC9333E
:1007BB00C910D7059BE99A4007EC9BFCE99AF90F06
:1007CB00D8E0E4C9FAE4CCFB2275F010EF2FFFEE72
:1007DB0033FEED33FDCC33CCC833C810D7079BECBD
:1007EB009AE899400AED9BFDEC9AFCE899F80FD535
:1007FB00F0DAE4CDFBE4CCFAE4C8F922C3E49FFFC2
:10080B00E49EFEE49DFDE49CFC22EB9FF5F0EA9E4A
:10081B0042F0E99D42F0EC6480C864809845F02278
:10082B00EB9FF5F0EA9E42F0E99D42F0E89C45F023
:10083B0022E8600FECC313FCED13FDEE13FEEF1378
:10084B00FFD8F122E86010ECA2E713FCED13FDEEEC
:10085B0013FEEF13FFD8F022BB010DE58229F582C1
:10086B00E5833AF58302098B5007E92582F80208E4
:10087B00B7BBFE07E92582F8020997E58229F582C5
:10088B00E5833AF5830209A3BB010DE58229F582C5
:10089B00E5833AF5830208DC5007E92582F8020864
:1008AB00D0BBFE07E92582F80209B322E6FC08E675
:1008BB00FD08E6FE08E6FF22E6FB08E6F908E6FA85
:1008CB0008E6CBF822ECF608EDF608EEF608EFF6A4
:1008DB0022ECF0A3EDF0A3EEF0A3EFF022D083D047
:1008EB0082E493F608740193F608740293F6087485
:1008FB000393F6740473A8828583F0D083D082129D
:10090B000918120918120918120918E473E493A3B1
:10091B00C583C5F0C583C8C582C8F0A3C583C5F020
:10092B00C583C8C582C822EC8EF0A4CCC5F0CCCD53
:10093B00F8EFA4CEC5F02DFDE43CFCE8A42EC8C511
:10094B00F03DFDE43CFCEFA4FFE5F028FEE43DFDAB
:10095B00E43CFC22EF4E6012EF60010EEDBB010B8D
:10096B0089828A83F0A3DFFCDEFA2289F05007F735
:10097B0009DFFCA9F022BBFEFCF309DFFCA9F02286
:10098B00E0FCA3E0FDA3E0FEA3E0FF22E2FC08E213
:10099B00FD08E2FE08E2FF22E493FC740193FD7470
:1009AB000293FE740393FF22ECF208EDF208EEF2D1
:1009BB0008EFF222900130E0900291F06402703265
:1009CB0078A6760178A0E6B4011678A6E6D3940053
:1009DB00400A9001007401F0900104F0E478A0F655
:1009EB00900100E06003020F879000F2F0A3F00289
:1009FB000F87900291E0FC64036003020BB8A2978F
:100A0B00335401FE25E0FE90028FE054FD4EF0E0E2
:100A1B00FF5401FEEFC3135401B5060FE0FF540260
:100A2B00FE25E0FEEF54FB4EF0801090028FE0FFAE
:100A3B005402FEC313FEEF54FE4EF0A295E4335462
:100A4B0001FF25E0FF900292E054FD4FF0E0FF54D0
:100A5B0001FEEFC3135401B5060FE0FF5402FE2550
:100A6B00E0FEEF54FB4EF08010900292E0FF540238
:100A7B00FEC313FEEF54FE4EF0A293E4335401FF7A
:100A8B0025E0FF900294E054FD4FF0E0FF5401FE8F
:100A9B00EFC3135401B5060FE0FF5402FE25E0FE31
:100AAB00EF54FB4EF08010900294E0FF5402FEC313
:100ABB0013FEEF54FE4EF090028FE054DFF054BF64
:100ACB00F0E0FF5408FE25E0FEEF54EF4EF0E0FFA0
:100ADB005404FE25E0FEEF54F74EF0E0FFC4540142
:100AEB00FEEF13131354016E6011E0FF30E3054466
:100AFB0020F0800790028FE04440F0900292E05487
:100B0B00DFF054BFF0E0FF5408FE25E0FEEF54EF9A
:100B1B004EF0E0FF5404FE25E0FEEF54F74EF0E0FC
:100B2B00FFC45401FEEF13131354016E6011E0FF69
:100B3B0030E3054420F08007900292E04440F090AF
:100B4B000294E054DFF054BFF0E0FF5408FE25E0C0
:100B5B00FEEF54EF4EF0E0FF5404FE25E0FEEF54A1
:100B6B00F74EF0E0FFC45401FEEF13131354016E64
:100B7B006011E0FF30E3054420F08007900294E021
:100B8B004440F090028FE020E31C78B106E6B46499
:100B9B0005D207020F8778B1E6C394655003020FA5
:100BAB00877665020F87E478B1F6020F87EC640451
:100BBB007061900100E064016003020F8778A6E684
:100BCB00FF6018900294E020E30A78B0760178BBBE
:100BDB0076018007E478B0F678BBF6EF640160032A
:100BEB00020F8790028FE0FF30E60954BFF0789D2B
:100BFB00061237D4900292E0FF20E603020F8754CF
:100C0B00BFF078BBE66003020F8778A30612385E4D
:100C1B00020F87900291E0FB64056003020CDB7806
:100C2B00A9E6FF7E007C007DB6120523EF243E78FB
:100C3B005FF6EE342918F69000F2744CF0A3746151
:100C4B00F0300605762A0876AA9000FEE0FEA3E0B7
:100C5B00FFD394E8EE9403400D783874F626F6181B
:100C6B0074FF36F68013C3EF94DEEE9403500A78CC
:100C7B0038740A26F618E436F67837E6FE08E6FFEF
:100C8B00D39471EE945C400818765C0876718010F2
:100C9B00C3EF941CEE940750077837760708761C41
:100CAB007837E6FE08E6FFD3785FE69FEE6480F5C3
:100CBB00F018E6648095F04005A60608A60790019B
:100CCB0000E06003020F879000F2F0A3F0020F87A1
:100CDB00EB64066003020F2678BBE6FF6401600E2F
:100CEB00900100E060089002C5E06407600D90027F
:100CFB00937401F0E478B4F6020E63E4900293F07F
:100D0B0078B5E6FE6404704778A9E6FDB40110904F
:100D1B0002967419F0A37478F078B4760A8022EDF9
:100D2B00B402109002967416F0A37446F078B47661
:100D3B000D800E9002967419F0A37437F078B47688
:100D4B001278A2766478AB76060876BA020E63EE5A
:100D5B006403704D78A2766478AB76060876BA7821
:100D6B00A9E6FEB401159002967416F0A3743CF03C
:100D7B0078A2766278B47610020E63EEB402117824
:100D8B00B476119002967419F0A37437F0020E63C7
:100D9B0078B476129002967419F0A37437F0020EA1
:100DAB006378B5E6FE6402705678A9E6FDB40115CA
:100DBB009002967423F0A37464F078A2766278B4F0
:100DCB00760A020E63EDB4021B9002967419F0A31F
:100DDB007450F078B4760C78A2766478AB76080809
:100DEB00762280749002967416F0A37446F078B451
:100DFB00760D78A2766478AB76080876228059EE69
:100E0B006401704678A9E6FEB4011B900296742D1E
:100E1B00F0A37478F078B4760778A2766478AB7622
:100E2B00080876DD8032EEB40210900296742DF035
:100E3B00A37478F078B47608801E9002967428F02C
:100E4B00A37478F078B47609800EE478B4F678A2BF
:100E5B00760A78AB761008F69002C5E0B40715D386
:100E6B0078AFE6946418E6648094804007D200E47F
:100E7B00900299F0D378BAE694D218E6940F400416
:100E8B00E478B4F6EF6401600878B4E678AAF680EB
:100E9B0005E4900295F078B5E6B4043278BBE670C1
:100EAB002D789E0806E6187001068606D39476EE1A
:100EBB0094044008E4789EF608F68018D3789FE6F1
:100ECB0094AC18E69401400CE478B4F68006E47810
:100EDB009EF608F678B4E6FF78AAE6D39F4002A602
:100EEB0007EF601B9000EFE0FF78AAE6FED39F4070
:100EFB000A9000EBE02EC39FF6800478AA76017867
:100F0B00AAE6D394144002761478AAE6FFC313FE24
:100F1B0078BDF6EF54012E08F68061900291E064E3
:100F2B000770599002C5E064077051900100E064AE
:100F3B0001704978A9E6FF13B39283EF5402FFC304
:100F4B001324FFB39282E6FF5404FE1313543F2481
:100F5B00FFB39281EF5408FF131313541F24FFB3F5
:100F6B009280E6FF5410FEC4540F24FFB392B7EFE8
:100F7B005420FFC413540724FFB392B678A4E6643D
:100F8B00017042F6799BE7C378BD96500678A5763B
:100F9B00038004E478A5F6789B06E6C3940A400226
:100FAB00E4F6C3740A78BE96FF78A7E6C39F4006A3
:100FBB0078BC76038004E478BCF678A706E6C39485
:100FCB000A4002E4F678A5E6D394004017D39001CB
:100FDB002AE094E8900129E094034004C2018006C2
:100FEB00D2018002D20178BCE6D394004017D39093
:100FFB00012AE094E8900129E094034004C20280A6
:10100B0006D2028002D202900298E0702C9000F27D
:10101B00F0A3F0D3900139E09432900138E09400C2
:10102B0050079000F7E0B401109002987402F09012
:10103B00010014F0E4900104F022900130E004F080
:10104B00C3940A4002E4F0900138E475F0011205F4
:10105B008AAFF0FEE4FCFD7B607AEAF9F8D3120864
:10106B0015500A90013874EAF0A37460F09002C531
:10107B00E0702D900129F0A3F090010175F00112A1
:10108B00058AAFF0FEE4FCFD7B607AEAF9F8C31247
:10109B000815504090010174EAF0A37460F080349D
:1010AB009002C5E0B40726900129E475F001120502
:1010BB008AAFF0FEE4FCFD7B607AEAF9F8C3120814
:1010CB0015500A90012974EAF0A37460F0E49001C2
:1010DB0001F0A3F0900034E0FEA3E07803CEC3133D
:1010EB00CE13D8F97930F7EE19F79000E4E0FEA3B0
:1010FB00E07803CEC313CE13D8F979BAF7EE19F70C
:10110B00900000E0FEA3E07803CEC313CE13D8F912
:10111B00FF900116EEF0A3EFF0900123E0FEA3E0A9
:10112B00FF9002B0E0FCA3E0FDD39FEC9E401BEDD3
:10113B009FFFEC9EFEEF7803CEC313CE13D8F9FFBF
:10114B00900107EEF0A3EFF08007E4900107F0A306
:10115B00F0900116E0FEA3E0FF7C127DED12093248
:10116B00780C12083C90011AEEF0A3EFF0C390013B
:10117B000AE09F900109E09E500F90011AE0FFA337
:10118B00E0900109CFF0A3EFF0789BE66003021229
:10119B001B900127E004F0D394644074900109E0A4
:1011AB00FEA3E0FFD39440EE9406501FC374409F00
:1011BB00FF74069EFE900296E0FD7C0012053590B2
:1011CB0000EBEFF0E49000EFF08022E49000EBF006
:1011DB0090010AE024C0FF900109E034F9FE90026F
:1011EB0097E0FD7C001205359000EFEFF09000EBDF
:1011FB00E0D3940340037403F09000EFE0D3940723
:10120B0040037407F0E4900109F0A3F0900127F07C
:10121B00900107E0FEA3E0FF7C397D711209327863
:10122B000C12083C9000FEEEF0A3EFF0900130E0C2
:10123B0020E03D9040D4E0FEA3E0FFEE3395E0FDCF
:10124B00FCE47BE47A57F9F81206EA780C12083CB6
:10125B0078231208D0900116E0FEA3E0FF9001075F
:10126B00E0FCA3E0FD12093278461208D0021337D6
:10127B009000FEE0FCA3E0FDE412039A7B007A8071
:10128B007909784512031C5032900110E475F00176
:10129B0012058AFEC3E5F09404EE94004027E49017
:1012AB000110F0A3F0782276017859760190012F86
:1012BB007402F01238B81235E7800AE47822F690FF
:1012CB000110F0A3F0D39000FFE094B09000FEE08B
:1012DB009404402E900141E475F00112058AFEC37F
:1012EB00E5F094EEEE940240347859760190012F9C
:1012FB007403F0E4900141F0A3F01238B81235E713
:10130B00801BC3900142E09402900141E0940040A5
:10131B000CA3E024FEF0900141E034FFF0122173A6
:10132B001220111223EC1230201231E1900130E027
:10133B00FF64036008EF640760030213E990011A6E
:10134B00E0FCA3E0FDE412039A7B007A6079067857
:10135B004512031C501D90010BE004F0C3940A408E
:10136B001AE4F0783C7601783376011238B81239EA
:10137B00348008E4783CF690010BF090011AE0FC05
:10138B00A3E0FDE412039AE4FBFA79FA7843120323
:10139B001C6021401F900133E004F0C3940A4019F4
:1013AB00900105E0B402069000E87401F0E49001AE
:1013BB0005F08005E4900133F0D390011BE09426F7
:1013CB0090011AE0940250030214829001057402FA
:1013DB00F0E49000F4F0A3F0784DF6021482900143
:1013EB0030E064056003021478200C7AD20C122AC8
:1013FB0009D37830E694D218E6940F40047F01802D
:10140B00027F00D37861E6945A18E664809480409A
:10141B00047E0180027E00EE4FFFA200E4334F609A
:10142B0028900120E004F0C39402404BE4F09001BB
:10143B000FE0940250097402F01238B81239347864
:10144B004F760178577601802EE4900120F0C37817
:10145B0061E6945818E664809480501BE490010F69
:10146B00F07857F68011C20C122ADA800A900130FC
:10147B00E0B40103121EAE783BE6B40114E4F67837
:10148B0041F6783D06E6C394054006760578367638
:10149B0001900138E07004A3E0644670097836E6E9
:1014AB00700478347601784106E6C3942C748094EA
:1014BB00814014762CE4783DF67836E6B401047856
:1014CB00347601E47836F6900130E0B409069001E9
:1014DB00347401F0229000F0E0B4012ED39000FCA4
:1014EB00E094009000FBE09400400EA3E024FFF09A
:1014FB009000FBE034FFF080119000F17401F0E4F8
:10150B009000F0F090013CE004F090013CE0D394AB
:10151B00004022D3900102E094F4900101E0940189
:10152B00500E90012AE094C4900129E094094005E3
:10153B00E490013CF09000F2E0FFA3E0900118CFA3
:10154B00F0A3EFF0A3E0FCA3E0FDE412039AE4FBAD
:10155B00FA79FA784312031C602B40297852E6D3B0
:10156B0094004021900136E475F00112058AFED3F8
:10157B00E5F09432EE94004013E4900136F0A3F0C2
:10158B007851F68007E4900136F0A3F0E490011D4A
:10159B00F09000F7E0702CC3900139E09432900189
:1015AB0038E09400400FD390011BE0942690011A71
:1015BB00E09402500890011D7401F080069000F732
:1015CB007401F09000E8E0640160067834E6B40141
:1015DB00069001067401F0900106E06401703F90E3
:1015EB00011D04F0D390011BE0942690011AE094A6
:1015FB00024005E49000E8F07836E6B40104E478A4
:10160B0034F6E4900100F09000E8E070117834E6D5
:10161B00700C900106F090010CF0A37428F0D3909D
:10162B00010DE0940090010CE09400401890011D16
:10163B007401F090010C74FFF5F012058A45F070FF
:10164B000478A0760190011DE0B40107E490011825
:10165B00F0A3F0900118E0FEA3E0FF9000ECEEF099
:10166B00A3EFF0E4900143F090013AF09000FDF00D
:10167B00C3EF94EBEE9401401390011CE0700590C6
:10168B00013A04F090011C7402F08014C39000ED39
:10169B00E094479000ECE094015005E490011CF0BD
:1016AB0090011CE0FFB4020F90013AE0B4010F90DF
:1016BB0001357401F08007EF7004900135F0900054
:1016CB00F1E0B4010BE4F090010004F09000FDF0A8
:1016DB00900104E0B40107E4F09000FD04F09001E8
:1016EB003AE0B40107E4F09000FD04F09000FDE057
:1016FB00B401069000FA7401F090011CE0700490A4
:10170B0000FAF09000FAE0701212335D7852E6D3D3
:10171B009400405CE4900135F08055E49000FAF0C1
:10172B009001DBF09001D1F0A3F09001DCF0785147
:10173B00F6784EF67862F67832F67829F67839F63E
:10174B00784DE6784AF6783CE67833F67822E678F8
:10175B0059F67857E6784FF612335D7852E6D39404
:10176B00004007E4900135F080069001357401F0DC
:10177B00900135E0B40111900118E0FEA3E0FF7871
:10178B004BA60608A6078006E4784BF608F6C37846
:10179B004CE694EB18E664809481400C9001DBE0FE
:1017AB00B4010576010876EB784BE6FA08E6FBC345
:1017BB00EA64809490400B78531208E8000003848D
:1017CB008065C3EB94EBEA648094814038784CE6F7
:1017DB002415FF18E634FEFE3395E0FDFCE47B2078
:1017EB007A03F9F81206EAE47B157A0EF9F8120778
:1017FB0075EF2464FFE43EFEE43DFDE43CFC7853CE
:10180B001208D08022C3784CE6944718E664809483
:10181B0081400B78531208E800000064800978536C
:10182B001208E800000000E47FEBFEFDFC78531289
:10183B0008C31206EA782B1208D0D390011BE09450
:10184B00E890011AE094034032E47FE87E03FDFC4C
:10185B0078531208C31206EAC006C00790011AE0BB
:10186B00FEA3E0FFFBAA06E4F9F8D007D0061207A7
:10187B007590011EEEF0A3EFF0800D78531208B7B0
:10188B0090011EEEF0A3EFF090011EE0FEA3E0FF2F
:10189B00E4FCFD7BE87A03F9F8C312082B500A909D
:1018AB00011E7403F0A374E8F022C0E0C0F0C08303
:1018BB00C082C0D075D000C000C001C002C003C040
:1018CB0004C005C006C007904061E020E703021A80
:1018DB00EA904039E04440F090010E7401F0900220
:1018EB00C5E0B407359040D8A3E025E0FF0582D5CD
:1018FB00820215831582E033900004F0A3EFF09081
:10190B000004E0FEA3E0FFA3E0FCA3E0FD7B1412C8
:10191B003750900006EEF0A3EFF09002C5E0FF64A5
:10192B0001603FEF603C9040D4E0FEA3E0FF9000ED
:10193B000EE0FCA3E0FD7B1E12375090000EEEF084
:10194B00A3EFF09040D6E0FEA3E0FF900016E0FC82
:10195B00A3E0FD7B0A123750900016EEF0A3EFF0D8
:10196B00800790000EE4F0A3F09040BAE0FEA3E0F5
:10197B00FF90001EE0FCA3E0FD7B0A1237509000A5
:10198B001EEEF0A3EFF09040B8E0FEA3E0FF900056
:10199B0020E0FCA3E0FD7B0A123750900020EEF014
:1019AB00A3EFF0900306E0FEA3E07803C333CE333E
:1019BB00CED8F9FF9002B0E0FCA3E0FD7B321237EA
:1019CB00509002B0EEF0A3EFF0900304E0FEA3E022
:1019DB007803C333CE33CED8F9FF9000DEEEF0A3FD
:1019EB00EFF09000DEE0FEA3E0FF900000E0FCA330
:1019FB00E0FD7B3C123750900000EEF0A3EFF0902F
:101A0B000302E0FEA3E07803C333CE33CED8F9FF55
:101A1B009000E4EEF0A3EFF09000E4E0FEA3E0FF13
:101A2B009001AEE0FCA3E0FD7B141237509001AEA9
:101A3B00EEF0A3EFF090030EE0FEA3E07803C333C8
:101A4B00CE33CED8F9FF900034E0FCA3E0FD7B0A47
:101A5B00123750900034EEF0A3EFF0D390020BE06E
:101A6B00940090020AE09400400CA3E024FFF09055
:101A7B00020AE034FFF0D3787EE6940018E6940077
:101A8B00400708E616187001169000A2E0D39400E8
:101A9B004003E014F0D3900031E09400900030E06C
:101AAB009400400FA3E024FFF0900030E034FFF0EF
:101ABB00122D8B9002C5E0B4071BD3900033E0943A
:101ACB0000900032E09400400CA3E024FFF0900063
:101ADB0032E034FFF0123654904061E0547FF05303
:101AEB009F7F539FBF539FDFD007D006D005D004F5
:101AFB00D003D002D001D000D0D0D082D083D0F090
:101B0B00D0E0329002C5E0FF64076008EF64086024
:101B1B0003021D0D900002E0FEA3E0FFEE60030246
:101B2B001D0DEF146078147003021C622402600315
:101B3B00021D0D9040D4E0FEA3E0D39422EE64800E
:101B4B0094825003021D0D9040947410F0A3E4F0A6
:101B5B00A304F0A37447F075F50B75F450E4F5F797
:101B6B00F5F6900002F0A37402F0904092E0FFA310
:101B7B00E0900008CFF0A3EFF0900008E0FEA3E0A8
:101B8B00FF8EED8FEC75EF0675EE6675F30075F253
:101B9B00289000407402F090003F7405F0227846C4
:101BAB001208B7AB07AA06A905A804C004C005C054
:101BBB0006C007782B1208B7D003D002D001D00093
:101BCB00C3EF9BFFEE9AFEED99FDEC98FC9002742F
:101BDB001208DCE4FFFEFDFC900274E0F8A3E0F9D0
:101BEB00A3E0FAA3E0FBC31208154023E47F107EA9
:101BFB0027FDFC900274E0F8A3E0A3E0A3E0120839
:101C0B001540329002741209010000271080267FC4
:101C1B00F07ED87DFF7CFF900274E0F8A3E0F9A37F
:101C2B00E0FAA3E0FBD3120815500A9002741209D4
:101C3B0001FFFFD8F0900274E0A3E0A3E0FEA3E065
:101C4B00FF90027CEEF0A3EFF07C007D03120523E6
:101C5B001238EF122FA522900026E475F001120521
:101C6B008AFEC3E5F09405EE94005003021D0DE4CB
:101C7B00900026F0A3F090000EE0FEA3E0FF782882
:101C8B00E69FFF18E69EFE3395E0FDFC900278126E
:101C9B0008DCE47F987E3AFDFC900278E0F8A3E044
:101CAB00F9A3E0FAA3E0FBD3120815400C90027ED7
:101CBB00743AF0A37498F0803B7F687EC57DFF7CFF
:101CCB00FF900278E0F8A3E0F9A3E0FAA3E0FBC3EE
:101CDB00120815500C90027E74C5F0A37468F08046
:101CEB0013900278E0A3E0A3E0FFA3E090027ECF85
:101CFB00F0A3EFF090027EE0FEA3E0FF1238EF12AC
:101D0B002FA5229002C5E0B40C004003021EAD903B
:101D1B001D21F8282873021D45021D80021D930208
:101D2B001DB3021DC9021DE0021DF7021DFB021EA1
:101D3B0029021EAD021EAD021E9512361E90025ACE
:101D4B00E064016003021EAD9000D5E06401600306
:101D5B00021EAD900030E07002A3E06003021EADE6
:101D6B009002C504F0904082E4F0A3F0A3F0A3F03E
:101D7B00A3F0A3F02212389B9002C57402F09000DE
:101D8B003014F0A3742CF02212284F900030E07026
:101D9B0002A3E06003021EADC2FF9002C57403F004
:101DAB00E4900030F0A3F0229002C57404F090028E
:101DBB00C2E054DFF074FF90000CF0A3F022E4902B
:101DCB00000CF0A3F09002C57405F0900030E4F025
:101DDB00A37464F022122F29900030E07002A3E06C
:101DEB006003021EAD9002C57406F022122BAB22CB
:101DFB009000D5E06003021EAD9002C57408F09010
:101E0B000030E4F0A374C8F0904092E4F0A3F0C269
:101E1B00FF904062E054DFF09040A0E4F02290008D
:101E2B0030E07002A3E0707AC2FF9040A0F09040C7
:101E3B0062E054DFF090405EE0FFA3E0904058CFAB
:101E4B00F0A3EFF090405CC083C082E0FFA3E054AE
:101E5B00C0D082D083CFF0A3EFF090405CC083C0A2
:101E6B0082E0FFA3E04415D082D083CFF0A3EFF044
:101E7B00904062E054F7F0D2FF9002C5740BF090E3
:101E8B0000307401F0A37490F022900030E07002E7
:101E9B00A3E0700EC2FF904062E054DFF0E49002CA
:101EAB00C5F0229001DBE06003021F989040D4E064
:101EBB00FEA3E0D3784096EE189650439001E5E0F0
:101ECB0004F0C39405400E7405F0E49001D0F0903B
:101EDB0001EEF0A3F09001D9E475F00112058AFE32
:101EEB00C3E5F0942CEE94015003021FBF9001D96F
:101EFB007401F0A3742CF0E49001DCF0021FBF908E
:101F0B0001D0E004F0C39405400E7405F0E4900199
:101F1B00E5F09001D9F0A3F09001DCE07025900181
:101F2B00EE75F00112058AFED3E5F094C8EE94002D
:101F3B0040359001EEE4F0A374C8F09001DB74011E
:101F4B00F080249001EEE475F00112058AFED3E5D2
:101F5B00F0940AEE9400400F9001EEE4F0A3740AA3
:101F6B00F09001DB7401F09001DBE064017045A39C
:101F7B00E004F0D39400403CE4F09001DBF07851A6
:101F8B0076019001037403F01238B880279001DBBF
:101F9B00E0B401209001D1E475F00112058AFEC373
:101FAB00E5F09432EE9400400BE49001D1F0A3F0F5
:101FBB009001DBF09040D4E0FEA3E0D39400EE94CC
:101FCB0060403B90012AE094F4900129E094014099
:101FDB00349001E6E475F00112058AFED3E5F09426
:101FEB0064EE9400401FE49001E6F0A3F078517684
:101FFB00019001037402F01238B81235E722E49015
:10200B0001E6F0A3F0229002C5E064076003022111
:10201B0072D39000C6E094E89000C5E0648094838E
:10202B005045A3E004F070069000C5E004F0D39097
:10203B00000FE0947190000EE0648094DC402890D7
:10204B000017E09414900016E09400501AE49000EE
:10205B00C5F0A3F0789076017832760190012B04CD
:10206B00F01238B81235E7D39000C0E094E8900036
:10207B00BFE064809483400302212AA3E004F07044
:10208B00069000BFE004F09000C2E004F0700690F0
:10209B0000C1E004F0C39000C2E094DC9000C1E00A
:1020AB006480948550030221317405F0A374DCF035
:1020BB00900017E09405900016E0940050429000B9
:1020CB00BEE004F070069000BDE004F0C39000BECB
:1020DB00E094149000BDE0648094804049E490004B
:1020EB00C1F0A3F09000BDF0A3F0789076027832A7
:1020FB00760190012B7402F01238B81235E7802666
:10210B00D39000BEE094009000BDE06480948040CA
:10211B0015A3E024FFF09000BDE034FFF08007E44E
:10212B009000BDF0A3F0900002E07002A3E07037C6
:10213B009000C4E004F070069000C3E004F0C3907C
:10214B0000C4E094909000C3E0648094814018E454
:10215B00F0A3F0789076037832760190012B74031C
:10216B00F01238B81235E7229040CAE0FFA3E09096
:10217B0001D3CFF0A3EFF09040C8E0FFA3E09001B4
:10218B00D5CFF0A3EFF09001D3E0FAA3E0FBC3E4CB
:10219B009BFFE49AFEA3E0FCA3E0FDC3EF9DFFEEE3
:1021AB009CA3F0A3EFF0C3EA6480948040119001EC
:1021BB00D3E0FEA3E0FF7882A60608A60780149062
:1021CB0001D3E0FEA3E0FFC3E49FFFE49E7882F619
:1021DB0008A607C3EC6480948040097884A60408A1
:1021EB00A605800CC3E49DFFE49C7884F608A60743
:1021FB009001D7E0FEA3E0FFC3EE6480948040091A
:10220B007886A60608A607800CC3E49FFFE49E7899
:10221B0086F608A6077882E6FE08E6FF9001EAEE4E
:10222B00F0A3EFF008E6FC08E6FDC3EF9DEE9C5033
:10223B00089001EAECF0A3EDF07886E6FE08E6FFE5
:10224B00C39001EBE09F9001EAE09E5005EEF0A3F6
:10225B00EFF09001EAE0FEA3E0FFC39001EDE09FF9
:10226B00EE6480F89001ECE06480985005EEF0A3EA
:10227B00EFF0D3EF94FAEE64809496402B90012A02
:10228B00E094F4900129E09401402A788106E694C9
:10229B00084022782276017859760190012F74013B
:1022AB00F01238B81235E722E47822F67881E6D3BB
:1022BB00940040011622904062E054DFF0E044208D
:1022CB00F09040A0E4F0A3F0904090F0A3F0A3F0C6
:1022DB00A3F09040CCF0A3F09040AAF0A3F0904074
:1022EB00A8F0A3F09040ACF09040AE04F0A3746C57
:1022FB00F09040AD7402F09040B0743FF0A374FFC7
:10230B00F0A374C0F0A37401F0A3747EF0A374B7B0
:10231B00F0A37481F0A37449F090408C746DF0A31A
:10232B00749CF0A37411F0A3747EF09040887450E9
:10233B00F0A374ECF0A3E4F0A3F09040807420F0D1
:10234B00A3E4F090407EF0A37480F090407C74C9BD
:10235B00F0A3740EF09040A3E4F09040A1E0547F02
:10236B00F0904078746CF0A374CBF0A37404F0A3DA
:10237B007477F09040A0E04401F09000DAE0B401F3
:10238B0009904062E04440F08007904062E054BF07
:10239B00F0904062E054BFF0300604E04440F0900F
:1023AB0040A0E054F3F09040A274C4F09040A574A8
:1023BB0015F09040A1E054DFF053D69F90025AE005
:1023CB00B401169040A1E054F3F0900252E0FFA349
:1023DB00E09040A6CFF0A3EFF0904062E04408F00D
:1023EB00229002C5E064076003022512D39000A877
:1023FB00E094E89000A7E09403500DA3E004F07084
:10240B00069000A7E004F022900016E0FEA3E0FF88
:10241B00C3940AEE940040199040D4E0FCA3E0D39F
:10242B009491EC64809480403DEF9428EE9400509E
:10243B00359000AAE004F070069000A9E004F0C308
:10244B009000AAE0940A9000A9E094004033E4F0D5
:10245B00A3F07893760190012804F07862F6123895
:10246B00B81235E7801BD39000AAE094009000A926
:10247B00E09400400CA3E024FFF09000A9E034FFAF
:10248B00F090000EE0FEA3E0FFC39438EE6480945E
:10249B008E400BD3EF948DEE648094E3404E90000E
:1024AB00ACE004F070069000ABE004F0C39000AC1D
:1024BB00E094089000ABE09400404CE4F0A3F0787B
:1024CB0093760290000FE0943890000EE0648094B5
:1024DB008E50089001287402F08006900128740336
:1024EB00F0786276011238B81235E722D39000AC3F
:1024FB00E094009000ABE09400400CA3E024FFF0CC
:10250B009000ABE034FFF022E49002C6F0A3F09011
:10251B0002C6E475F0011205A0FEC3E5F09410EEBF
:10252B00942740EB7F30EFC394FF5007A807E4F6E6
:10253B000F80F3E4FFFED3EF94FFEE9402500D8F68
:10254B00828E83E4F00FEF70010E80EA78FFE4F6E1
:10255B00122754122CF7E49002C5F090008BF01266
:10256B0026371237D412385E12394B12356D1233AF
:10257B00B51238D412309812390712330120951C3A
:10258B00209319D20B789D760178A9760178A376E2
:10259B000178B57601E478B0F678BBF61237F9120C
:1025AB00372112391990025AE07022122935900204
:1025BB005AE0B401F0E4900258F0A3F0900252E01C
:1025CB00FFA3E0900123CFF0A3EFF080D890010E92
:1025DB00E0B401D1E4F01210451209BF900134E0D0
:1025EB00B40105E4F01214E0784BE6FE08E6FFC3F5
:1025FB0094EBEE6480948140109000D57401F090C0
:10260B0000C9E4F0A304F08016C3EF9447EE648096
:10261B009481500BE49000D5F09000C9F0A3F01218
:10262B001D0E121B0E122EA30225B022C2AF90025A
:10263B00A6E0600302275304F0E4900286F09002B8
:10264B0086E0C394045023E0FF2400FDE4343E8D68
:10265B0082F583E493FE74AC2FF582E43402F583A8
:10266B00EEF0900286E004F080D49002ACE064A51A
:10267B0060199002A7E4F0A304F012392712324537
:10268B009002A97402F0A37408F0229002A97401BD
:10269B00F0900286F0900286E0FFD3941E5025EF57
:1026AB0075F004A42400FFE5F0343E8F82F583E43B
:1026BB0093B4A508900286E09002A9F0900286E000
:1026CB0004F080D19002A9E0FD25E025E0FFA3F006
:1026DB00FC9002AFE0FE9002AEE07A002400FFEA2D
:1026EB003E9002A7F0A3EFF0ECFF7E002401FBEE7F
:1026FB00343E8B82F583E493789DF6EF2402FFEE54
:10270B00343E8F82F583E49378A3F6EC2403FFEE3B
:10271B00343E8F82F583E49378B0F6EDC3941E407C
:10272B001C9002A8E004F070069002A7E004F012DF
:10273B0032459002A97402F0A37408F0229002A90A
:10274B00E004F0A3E02404F0227E007F397D007BBF
:10275B00017A00799012095F7E007F0C7D007B006F
:10276B007A00798E12095F7E007F0D7D007B007AE7
:10277B0000798112095F7E007F097D007B017A0061
:10278B00796012095F7E007F457D007B017A0079BD
:10279B000012095F7E007F087D007B017A0079DEE5
:1027AB0012095F7E007F157D007B017A027946124C
:1027BB00095F90024812090100003FFF90024E1280
:1027CB00090100003FFF90025412090100003FFF76
:1027DB007E007F077D007B017A00798412095F9070
:1027EB0000877413F0A37487F07E007F0F7D007B4E
:1027FB00017A0079C912095F9000D3E4F0A304F0C9
:10280B007E007F1B7D00FB7A00794512095F7E00FD
:10281B007F397D007B017A01794412095F7E007F4D
:10282B00097D007B017A00797B12095FE49002C27B
:10283B00F09000DDF09000DAF09000D87414F0A363
:10284B007478F0229002C2E020E134E04402F09070
:10285B00405EE0FCA3E0FDE412039A7BCD7ACC79D9
:10286B00CC783D1201761203D3904058EEF0A3EFD3
:10287B00F0904062E054F7F0E490002EF0A3F0C328
:10288B00900031E0942C900030E09401502990009E
:10289B002EE07002A3E0701F90002EF0A304F090C6
:1028AB00405CC083C082E0FFA3E04401D082D083B0
:1028BB00CFF0A3EFF0D2FFD3900031E094C890009B
:1028CB0030E09400502A90002EE07004A3E06401E5
:1028DB00701E90002EF0A37402F090405CC083C079
:1028EB0082E0FFA3E04404D082D083CFF0A3EFF0CB
:1028FB00D3900031E09464900030E09400502A9023
:10290B00002EE07004A3E06402701E90002EF0A372
:10291B007403F090405CC083C082E0FFA3E04410DE
:10292B00D082D083CFF0A3EFF02290025AE0600365
:10293B00022A08904039E04440F0904039E020E60C
:10294B00F9900254E0F8A3E0F9A3E0FAA3E0FBC08E
:10295B0000C001C002C003900308E0540FFEA3E0C7
:10296B007803C333CE33CED8F9FFE4FCFDD003D0CC
:10297B0002D001D000EB2FFFEA3EFEED39FDEC3823
:10298B00FC9002541208DC900254E0FCA3E0FDA37F
:10299B00E0FEA3E0FF780412084F900252EEF0A382
:1029AB00EFF0A3E0FCA3E0FDA3E0FEA3E0FFC00675
:1029BB00C007900252E0FEA3E0FFFBAA06EA3395A4
:1029CB00E0F9F8D007D006C3EF9BFFEE9AFEED9926
:1029DB00FDEC98FCA31208DC900259E004F07006A1
:1029EB00900258E004F0D3900259E094D090025832
:1029FB00E064809487400690025A7401F022782F8D
:102A0B00E6FE08E6FFD39437EE940D4003022AD27C
:102A1B00EF9421EE940A402318E6FC08E6FD9002A1
:102A2B008C740DF0A37437F07B217A0A7F327E0011
:102A3B0012368A7860A60608A60722782FE6FC08CD
:102A4B00E6FDD394BAEC9406401D90028C740AF008
:102A5B00A37421F07BBA7A067F4B7E0012368A78FC
:102A6B0060A60608A60722782FE6FC08E6FDD3949D
:102A7B0015EC9404401D90028C7406F0A374BAF00C
:102A8B007B157A047F647E0012368A7860A606086E
:102A9B00A60722782FE6FC08E6FDD3946AEC940295
:102AAB00401D90028C7404F0A37415F07B6A7A02BB
:102ABB007F7D7E0012368A7860A60608A6072278EC
:102ACB0060760008767D2278607600087619227889
:102ADB00B9E6FE08E6FFD394E7EE940C4003022B15
:102AEB00A3EF9496EE9409402318E6FC08E6FD90BC
:102AFB00028C740CF0A374E7F07B967A097F327E1C
:102B0B000012368A78AEA60608A6072278B9E6FC2C
:102B1B0008E6FDD39411EC9406401D90028C7409C9
:102B2B00F0A37496F07B117A067F4B7E0012368AE7
:102B3B0078AEA60608A6072278B9E6FC08E6FDD310
:102B4B009478EC9403401D90028C7406F0A37411DE
:102B5B00F07B787A037F647E0012368A78AEA60605
:102B6B0008A6072278B9E6FC08E6FDD394EBEC94B3
:102B7B0001401D90028C7403F0A37478F07BEB7A08
:102B8B00017F7D7E0012368A78AEA60608A6072244
:102B9B0078AE760008767D2278AE7600087619221C
:102BAB009002C2E030E403022C3BE04410F0904072
:102BBB00CCE4F0A3F09040CCE0FEA3E024CDFFEEFC
:102BCB0034ECA3F0A3EFF09040CEE0FFA3E0900233
:102BDB00C3CFF0A3EFF0904090E4F0A3F090000887
:102BEB007408F0A374B4F0904094740CF0A374CCFC
:102BFB00F0A3E4F0A37462F09040747402F0A37439
:102C0B0090F0A3E4F0A3740BF0904082E4F0A37473
:102C1B001EF0A3E4F0A374DAF0A37401F0A3746CB8
:102C2B00F09040A0E04440F0E054DFF0E04410F0BE
:102C3B00900030E4F0A37478F09002C57407F09024
:102C4B000008E0FFA3E0904092CFF0A3EFF022C08A
:102C5B00E0C0F0C083C082C0D075D000C000C001FE
:102C6B00C002C003C004C005C006C007E5D730E7EB
:102C7B00609002C5E06404600C1238B81235E77836
:102C8B004E76018049C2FF9001A2E0FF25E0248E21
:102C9B00F582E43401F583E5ABF0A3E5AAF0EF256B
:102CAB00E0248EF582E43401F583E0FEA3E0FF908F
:102CBB0001A2E025E0247EF582E43401F583EEF0F9
:102CCB00A3EFF0E4F5ABF5AA9001A2E004F053D723
:102CDB007FD007D006D005D004D003D002D001D0CE
:102CEB0000D0D0D082D083D0F0D0E0327E007F19DC
:102CFB007D007B017A02792B12095FE49002C8F008
:102D0B00FF7E3F12352B9002C9EFF064116037E064
:102D1B00FF64216031EF6441602CEF64126027EF98
:102D2B0064226022EF6442601DEF64146018EF644C
:102D3B00246013EF6444600EEF64186009EF64289D
:102D4B006004EFB4481C9002C9E090023FF0540FAE
:102D5B00900230F09002C9E05470900231F0E4A37D
:102D6B00F0229002307401F0A37410F0E4A3F09001
:102D7B000231E0FF900230E06F90023FF0A3F022AF
:102D8B009002C5E064076003022E16900030E0FE4F
:102D9B00A3E0FFB42C16EEB401129040747402F051
:102DAB00A374D9F0A3E4F0A3740EF022EF64C84E21
:102DBB0070129040747403F0A37422F0A3E4F0A398
:102DCB007411F022EF64964E70129040747403F0FD
:102DDB00A374FCF0A3E4F0A3741CF022EF64644E24
:102DEB0070129040747405F0A374B2F0A3E4F0A3D6
:102DFB007439F022EF64324E70119040747408F005
:102E0B00A3748BF0A3E4F0A37480F022787FE4F634
:102E1B00D8FD7581DB022E5E022513E493A3F8E443
:102E2B0093A34003F68001F208DFF48029E493A317
:102E3B00F85407240CC8C333C4540F4420C8834030
:102E4B0004F456800146F6DFE4800B0102040810FF
:102E5B002040809037AAE47E019360BCA3FF543FCF
:102E6B0030E509541FFEE493A360010ECF54C02537
:102E7B00E060A840B8E493A3FAE493A3F8E493A327
:102E8B00C8C582C8CAC583CAF0A3C8C582C8CAC58B
:102E9B0083CADFE9DEE780BE900106E0B4010E9045
:102EAB0002C5E070089002A5E0700204F09002A544
:102EBB00E06401703E7402F0200B38C2AF9002A99F
:102ECB00E0D3941E401D9002A8E004F0700690021F
:102EDB00A7E004F01232459002A97402F0A3740823
:102EEB00F0800E1234539002A9E004F0A3E0240406
:102EFB00F0D2AF9002A5E0B40223900106E0701D62
:102F0B009002A5F0300B16789D760178A9760178A2
:102F1B00A3760178B5760178B0F678BBF6229002ED
:102F2B00C2E020E274E04404F01222C1904090E42D
:102F3B00F0A3F0A37403F0A3740BF0A37410F0A32D
:102F4B00E4F0A3F0A37428F09040747402F0A3741F
:102F5B0090F0A3E4F0A3740BF09040CCE4F0A3F05A
:102F6B009040CCE0FEA3E02400FFEE34F0A3F0A3EE
:102F7B00EFF09040CCE0FFA3E09002C3CFF0A3EFC3
:102F8B00F090405CC083C082E0FFA3E0443FD0825E
:102F9B00D083CFF0A3EFF0D2FF2290408EE0FEA3C0
:102FAB00E0C394E8EE64809494502790408EE0FF49
:102FBB00A3E090001BCFF0A3EFF0E0240AF0900009
:102FCB001BE03400F0E0FFA3E090408ECFF0A3EFC6
:102FDB00F02290408EE0FEA3E0D394FCEE6480944C
:102FEB0094402790408EE0FFA3E090001BCFF0A30E
:102FFB00EFF0E024F6F090001BE034FFF0E0FFA3CD
:10300B00E090408ECFF0A3EFF02290408E7414F03E
:10301B00A374F2F02290011EE0FEA3E0FF900131B9
:10302B00E0FCA3E0FDC39FEC9E501CE0240AF09053
:10303B000131E03400F0D3A3E09F900131E09E40DA
:10304B004BEEF0A3EFF022D3ED9FEC9E403ED390DE
:10305B000132E0940A900131E09400400EA3E02489
:10306B00F6F0900131E034FFF08007E4900131F08D
:10307B00A3F090011EE0FEA3E0FFC3900132E09F9E
:10308B00900131E09E5005EEF0A3EFF022D20F7FBE
:10309B000112349E904052E04420F0904039E044BD
:1030AB0080F090404FE04410F0E4FFFEC3EF94D06B
:1030BB00EE940750070FEF70010E80F0904052E036
:1030CB004410F0904051E044B8F0904036C083C0BB
:1030DB0082E0FFA3E0449ED082D083CFF0A3EFF039
:1030EB00904036C083C082E04430FFA3E0D082D052
:1030FB0083CFF0A3EFF09040387433F0A3E054FC8F
:10310B00F0228F828E83E0F5C78F828E83A3E0F54A
:10311B00C68F828E83A3A3E0F5C58F828E83A3A374
:10312B00A3E0F5C48D828C83E0F5CDAE04AF058FA3
:10313B00828E83A3E0F5CC43C101E5C130E703D315
:10314B008001C350F57B017A027980E5C785C6F013
:10315B0012069E740229F9E43AFAE5C585C4F01209
:10316B00069E900280E0FCA3E0FDA3E0FEA3E0FF3F
:10317B00227E007F397D007B017A00799012095FF6
:10318B007E007F457D007B017A00790012095F7E0E
:10319B00007F077D007B017A00798412095F900024
:1031AB00877413F0A37487F07E007F247D007B016E
:1031BB007A0179AA12095FE49002C2F090008C1296
:1031CB0009013F333333E4900242F0900032740331
:1031DB00F0A374E8F022785EE6FE08E6FFC37828D9
:1031EB00E69FEE6480F5F018E6648095F0502008B9
:1031FB00742426F618E436F6D308E69FEE6480F5C1
:10320B00F018E6648095F04030A60608A6072278F1
:10321B002874DC26F61874FF36F6C308E69FEE64B6
:10322B0080F5F018E6648095F0500E785EE6FE08A7
:10323B00E6FF7827A60608A607227F007E3E1236F9
:10324B00BE7DA57F007E3E1236F07D5A7F017E3E0D
:10325B001236F09002A7E0A3E0FD7F027E3E12360D
:10326B00F09002A7E0FD7F037E3E1236F07DA57F36
:10327B00047E3E1236F0789DE6FD7F057E3E1236CB
:10328B00F078A3E6FD7F067E3E1236F078B0E6FDC1
:10329B007F077E3E1236F022A807E6F5C7E804F852
:1032AB00E6F5C6EF2402F8E6F5C5EF2403F8E6F5DC
:1032BB00C4A805E6F5CDE804F8E6F5CC43C101E575
:1032CB00C130E703D38001C350F57B017A027980CB
:1032DB00E5C785C6F012069E740229F9E43AFAE5B1
:1032EB00C585C4F012069E900280E0FCA3E0FDA30E
:1032FB00E0FEA3E0FF2290405E7401F0A374F4F0B3
:10330B00A37418F0904062E04404F090405CC083DA
:10331B00C082A3E0543FFFD082D083E4F0A3EFF050
:10332B0053F8C0904061E054EFF0E054FC4402F0DD
:10333B0090405AE4F0A374FAF0D2BFC2BE90406141
:10334B00E04404F0A3E04480F0E054EFF0E04401EB
:10335B00F0227832E6FFC4333354C0FF7862E6FEC6
:10336B00C433333354802FFF7851E6FEC43354E01B
:10337B002FFF784FE6FEC454F02FFF784AE6FE335A
:10338B00333354F82FFF7833E6FE25E025E02FFF8B
:10339B007859E6FE25E02F784E267952F77839E6F4
:1033AB00FF25E07829267935F722904053E0442019
:1033BB00F0E04440F043FF40D2B643FF80D2B74326
:1033CB00FC01D28043FC02D28143FC04D28243FC39
:1033DB0008D28343FD01A3E04401F0D29043FD02E8
:1033EB00E04402F0D29153FD7FE04480F053FDDFC7
:1033FB00E04420F053FDF7E04408F022C0E0C0F0B9
:10340B00C083C082C0D075D000C000C001C002C054
:10341B0003C004C005C006C007904061E030E40D56
:10342B001235AC122173904061E054EFF0D007D00D
:10343B0006D005D004D003D002D001D000D0D0D01C
:10344B0082D083D0F0D0E0329002AAE02400FFE4D7
:10345B00343EFE7DA51236F0009002AAE02401FF57
:10346B00E4343EFE789DE6FD1236F0009002AAE0B1
:10347B002402FFE4343EFE78A3E6FD1236F0009002
:10348B0002AAE02403FFE4343EFE78B0E6FD1236D8
:10349B00F00022EF14601314601B146023240370DC
:1034AB002690404FE0543FF0801D90404FE0543F3A
:1034BB004440F0801290404FE0543F4480F080072E
:1034CB0090404FE044C0F090404FE054EFFF300F7E
:1034DB00047E1080027E00EF4E90404FF022C0E041
:1034EB00C0F0C083C082C0D075D000C000C001C086
:1034FB0002C003C004C005C006C0071238B812359D
:10350B00E7784E7601D007D006D005D004D003D093
:10351B0002D001D000D0D0D082D083D0F0D0E03216
:10352B00AD07AC06E4FFEFC394805033EF2DFBE403
:10353B003C8B82F583E493FE701BEF601524FFFB3D
:10354B00E434FFFAEB2DFBEA3C8B82F583E493FE2C
:10355B00FF227F0022EFB47F03AF06220F80C77FCD
:10356B000022904051E04480F053D69FE04440F05D
:10357B0043FE40904035E054BFF090404B74C4F094
:10358B00904035E04480F043D60853D9FBE5D9543D
:10359B00E74408F5D9E5D954FC4403F5D943D610D3
:1035AB002290005FE0B401147F4B7D531232A39045
:1035BB000055EEF0A3EFF0E490005FF0900018E000
:1035CB00B401187E007F107C007D1612310D900027
:1035DB0019EEF0A3EFF0E4900018F0229000F0E069
:1035EB00703004F0C390012AE094C4900129E09458
:1035FB0009501C90013CE0C3940250139000FBE077
:10360B007002A3E0700C9000FBF0A3740AF022127E
:10361B003934229002C2E020E02EE04401F09040C9
:10362B0062E054DFF0C2FF904036C083C082E0FFFF
:10363B00A3E0449FD082D083CFF0A3EFF0E49002BD
:10364B005AF0900258F0A3F0229002C5E0B4032E7A
:10365B00C390021BE094FA90021AE09400500DA361
:10366B00E004F0700690021AE004F022E4900214D9
:10367B00F0A3F090021AF0A3F090022104F0229034
:10368B000286EEF0A3EFF0C3ED9BFFEC9AFE7C00FD
:10369B007D19120523C390028DE09BFD90028CE0F7
:1036AB009AFC120535C3900287E09FFF900286E0DB
:1036BB009EFE22A2AF920FC2AFC3EF9480EE943F57
:1036CB00501475850375845A75841F008F828E8301
:1036DB0074A5F0758508A20F92AFE58530E4037FE2
:1036EB0001227F0022A2AF920FC2AFC3EF9480EEF4
:1036FB00943F501375850175845A75841F008F8212
:10370B008E83EDF0758508A20F92AFE58530E4034B
:10371B007F01227F00227844760008765A78427621
:10372B000008760A783F7660087600785A1208E827
:10373B0000020F587837765C08767190011474107C
:10374B00F0A3E4F022900284EEF0A3EFF0AF038F2E
:10375B00DD900284E0FEA3E0FF8EDF8FDEAE04AFD0
:10376B00058EE78FE643F9010000000000AFE6AEDF
:10377B00E72275EF0475EECC75F30075F228E4F5CE
:10378B00EBF5EA53F9FB43F90275F50B75F450F5BC
:10379B00F7F5F600000000F5EDF5EC53F9FD2248C6
:1037AB0002B2000000000000000044008C3F3333E5
:1037BB0033C10BC181C1824101F0004101F100C154
:1037CB000E010A004101A90000789DE6FF6005C3C8
:1037DB00947D4004789D7601789DE6FFD3943F500D
:1037EB000578A9A60722C3747E9F78A9F62253FEFB
:1037FB00FE904055E054FEF0904051E054FEF053E3
:10380B00D4FE43D301C28CC28BC2BDD2BCD2AAD2CE
:10381B00AF22C0D075D000C000C28A783B76017849
:10382B00A4760153D4FEA2019291A2029290D000F1
:10383B00D0D032C0E0E59D30E703539D7FE59D304E
:10384B00E603539DBFE59D30E506539DFE539DDF7B
:10385B00D0E03278A3E6C394084002E4F678A3E6FE
:10386B00FFD39404500578B5A60722C374089F783C
:10387B00B5F622C0E0E5A930E70353A97FE5A930EF
:10388B00E60353A9BFE5A930E50353A9DFD0E03226
:10389B00904036C083C082E0FFA3E054EED082D0CC
:1038AB0083CFF0A3EFF012317C12377D22C2FF9051
:1038BB004062E054DFF0E49002C5F0900135F078FF
:1038CB004BF608F6900100F02290404FE04401F0D7
:1038DB00904051E04480F0A3E04403F090404EE070
:1038EB004401F0228EEB8FEA43F902000000000046
:1038FB0000904092E5EDF0A3E5ECF02253D77FE585
:10390B00D5543F4440F5D5D2C7D2C6D2AF22C2CD93
:10391B00D2CCD2AF904061E04440F022789D76014A
:10392B0078A37601E478B0F622E49000F0F09000F2
:10393B00FBF0A3F022309802C298309902C2993260
:07394B0078B0E678BBF6221C
:00000001FF
