:10000000022C4102000632323232320232F73232F0
:0100100032BD
:0300130002364E64
:03001B0002321599
:0300230002368F13
:03002B00020007C9
:03003300020008C0
:03003B00022A8412
:03004300020009AF
:03004B0002366F0B
:030053000216D3BF
:03005B0002000A96
:0300630002375011
:03006B0002000E82
:0300730002000F79
:10007B0002001002043FE86480F8E933E8336011B2
:10008B000460F0ED33EC337009E8FCE9FDEAFEEBBC
:10009B00FF220460DED3EB9FEA9EE99DE8C2E78C6A
:1000AB00F0C2F795F0400CE8CCF8E9CDF9EACEFABE
:1000BB00EBCFFB12040A85D0F05804700320D5B3A4
:1000CB00E80470075002B2D502044992D5EC0460E3
:1000DB00F7E4CCC0E0C398F8603B94186008400D7F
:1000EB00D0E0FB020421E4FBFAC9FC8028E830E4F1
:1000FB0006E4C9FBE4CAFCE830E305E4C9CACBFC5F
:10010B00E854076010F8C3E913F9EA13FAEB13FB91
:10011B00EC13FCD8F130F52FC3E49CFCEF9BFFEE06
:10012B009AFEED99FDD0E0FBEF4E4D4C701222DBA9
:10013B0003020446EC2CFCEF33FFEE33FEED33FDF4
:10014B00ED30E7EB020421EF2BFFEE3AFEED39FD2C
:10015B00D0E0FB50130BBB0003020449ED13FDEE83
:10016B0013FEEF13FFEC13FC020421EC4D6011E8BE
:10017B00497017ED33EC3304600DE4FCFFFEFD22F8
:10018B00E933E8330470F802043F12040A580460A0
:10019B0009E4CC2481500628500902044928400365
:1001AB00020446C0E0EB4A7044B98006D0E0FB0283
:1001BB000435EF4E701CBD8008EBFFEAFEE9FD80B5
:1001CB00EBE98DF0A4FEE5F002025FE9CDF9EAFE62
:1001DB00EBFFEF89F0A4FCE5F0CE89F0A42EFFE451
:1001EB0035F0CD89F0A42DFEE435F08067EF4E702D
:1001FB0005BD80D780C3EF8BF0A4ACF0EE8BF0A4E1
:10020B002CFCE435F0F8EF8AF0A42CE5F038FCE494
:10021B0033CB8DF0A42CFCE5F03BF8EE8AF0A42C4C
:10022B00FCE5F038F8E433CF89F0A42CFCE5F0388A
:10023B00CF3400CE89F0A42FFFE5F03EFEE433C9A6
:10024B008DF0A42EFEE5F039CD8AF0A42FFFE5F05A
:10025B003EFEE43DFD33D0E0FB50070BBB000F022D
:10026B000449EC2CFCEF33FFEE33FEED33FD0204BF
:10027B0021020449EC5D046005E859047003020493
:10028B003F12040A580460F6EC4860F2EC7004FD6F
:10029B00FEFF22C860DB2481C85009C3986002505E
:1002AB00060204469850CAF582E9294B4A7005AB01
:1002BB008202043575F0007C1A7880C3EF9BEE9AAE
:1002CB00ED99400DC3EF9BFFEE9AFEED99FDE842D1
:1002DB00F0DC23ACF0D0E0FFD0E0FED0E0FDAB8251
:1002EB0020E7101BEB60BAEC2CFCEF33FFEE33FE78
:1002FB00ED33FD020421E803F830E705C0F075F09B
:10030B0000EF2FFFEE33FEED33FD40B830E7C28038
:10031B00AA74F8CC6480CCC86480C8F58204604FA2
:10032B00C3EB9FF5F0EA9E42F0E99D42F0E89C4555
:10033B00F0603C501DE5825FFFE582D313CB5BCBB6
:10034B00F42B5582FB50280ABA002409B900200867
:10035B00801DE5825BFBE582D313CF5FCFF4C31324
:10036B002F5582FF50090EBE00050DBD00010CC3B9
:10037B00EB9FF5F0EA9E42F0E99D42F0E89C45F0D8
:10038B006007CC4820E701B3EC2275F020800E7596
:10039B00F010800575F0087D007E007F003392D54C
:1003AB0030D503120807EC334010EF33FFEE33FE6A
:1003BB00ED33FDEC33FCD5F0ED22E5F0247EA2D538
:1003CB0013CC92E7CDCEFF22EDD2E7CD33EC3392B7
:1003DB00D524814006E4FFFEFDFC22FCE4CFCECD0C
:1003EB00CC24E0501174FF80EDC3CC13CCCD13CDD6
:1003FB00CE13CECF13CF0470F030D5DE020807E951
:10040B00D2E7C933E833F892D5EDD2E7CD33EC33ED
:10041B00FC5002B2D522EC30E7100FBF000C0EBE21
:10042B0000080DBD00040BEB6014A2D5EB13FCED23
:10043B0092E7FD2274FFFCFDFEFF22E480F8A2D5BB
:10044B0074FF13FC7D80E480EFBB010689828A83F5
:10045B00E0225002E722BBFE02E32289828A83E478
:10046B009322BB010CE58229F582E5833AF583E003
:10047B00225006E92582F8E622BBFE06E92582F822
:10048B00E222E58229F582E5833AF583E49322BBE8
:10049B00010989828A83F8E028F022500327F7228A
:1004AB00BBFE05F8E328F3228A838982F8E49328BC
:1004BB0022BB010FF8E58229F582E5833AF583E04B
:1004CB0028F0225009C58229F8E58226F622BBFEC8
:1004DB0009C58229F8E22582F222F8EA2583F58301
:1004EB00E9932822BB010689828A83F0225002F706
:1004FB0022BBFE01F322F8BB010DE58229F582E553
:10050B00833AF583E8F0225006E92582C8F622BB30
:10051B00FE05E92582C8F222EF8DF0A4A8F0CF8C5E
:10052B00F0A428CE8DF0A42EFE22BC000BBE002919
:10053B00EF8DF084FFADF022E4CCF875F008EF2FCF
:10054B00FFEE33FEEC33FCEE9DEC984005FCEE9D8C
:10055B00FE0FD5F0E9E4CEFD22EDF8F5F0EE8420A8
:10056B00D21CFEADF075F008EF2FFFED33FD400709
:10057B00985006D5F0F222C398FD0FD5F0EA22C5AC
:10058B00F0F8A3E028F0C5F0F8E5821582700215AB
:10059B0083E038F022A3F8E0C5F025F0F0E58215F2
:1005AB008270021583E0C838F0E822BB010A898209
:1005BB008A83E0F5F0A3E022500687F009E71922C1
:1005CB00BBFE07E3F5F009E3192289828A83E493E2
:1005DB00F5F074019322BB0110E58229F582E583C6
:1005EB003AF583E0F5F0A3E0225009E92582F8867D
:1005FB00F008E622BBFE0AE92582F8E2F5F008E2F4
:10060B0022E5832AF583E993F5F0A3E99322BB0155
:10061B000789828A8302058A500B09C5F027F7C523
:10062B00F01937F722BBFE0D09F8E325F0F3C5F0FF
:10063B0019E338F322F889828A8374019325F0C574
:10064B00F0F8E4933822BB010DC58229C582C5831E
:10065B003AC58302058A5011C58229F808E5F026B0
:10066B00F618F5F0E58236F622BBFE11C58229F8A5
:10067B0008E225F0F5F0F218E23582F222F8E58275
:10068B0029F582E5832AF58374019325F0F5F0E4CF
:10069B00933822BB010A89828A83F0E5F0A3F0220A
:1006AB005006F709A7F01922BBFE06F3E5F009F394
:1006BB001922F8BB0111E58229F582E5833AF5830E
:1006CB00E8F0E5F0A3F0225009E92582C8F608A668
:1006DB00F022BBFE09E92582C8F2E5F008F222E818
:1006EB008FF0A4CC8BF0A42CFCE98EF0A42CFC8A0C
:1006FB00F0EDA42CFCEA8EF0A4CDA8F08BF0A42D89
:10070B00CC3825F0FDE98FF0A42CCD35F0FCEB8E29
:10071B00F0A4FEA9F0EB8FF0A4CFC5F02ECD39FEDF
:10072B00E43CFCEAA42DCE35F0FDE43CFC2275F054
:10073B0008758200EF2FFFEE33FECD33CDCC33CCDB
:10074B00C58233C5829BED9AEC99E58298400CF5F6
:10075B0082EE9BFEED9AFDEC99FC0FD5F0D6E4CE24
:10076B00FBE4CDFAE4CCF9A88222B800C1B9005958
:10077B00BA002DEC8BF084CFCECDFCE5F0CBF97825
:10078B0018EF2FFFEE33FEED33FDEC33FCEB33FBB9
:10079B0010D703994004EB99FB0FD8E5E4F9FA2243
:1007AB007818EF2FFFEE33FEED33FDEC33FCC9333E
:1007BB00C910D7059BE99A4007EC9BFCE99AF90F06
:1007CB00D8E0E4C9FAE4CCFB2275F010EF2FFFEE72
:1007DB0033FEED33FDCC33CCC833C810D7079BECBD
:1007EB009AE899400AED9BFDEC9AFCE899F80FD535
:1007FB00F0DAE4CDFBE4CCFAE4C8F922C3E49FFFC2
:10080B00E49EFEE49DFDE49CFC22EB9FF5F0EA9E4A
:10081B0042F0E99D42F0EC6480C864809845F02278
:10082B00EB9FF5F0EA9E42F0E99D42F0E89C45F023
:10083B0022E8600FECC313FCED13FDEE13FEEF1378
:10084B00FFD8F122E86010ECA2E713FCED13FDEEEC
:10085B0013FEEF13FFD8F022BB010DE58229F582C1
:10086B00E5833AF58302098B5007E92582F80208E4
:10087B00B7BBFE07E92582F8020997E58229F582C5
:10088B00E5833AF5830209A3BB010DE58229F582C5
:10089B00E5833AF5830208DC5007E92582F8020864
:1008AB00D0BBFE07E92582F80209B322E6FC08E675
:1008BB00FD08E6FE08E6FF22E6FB08E6F908E6FA85
:1008CB0008E6CBF822ECF608EDF608EEF608EFF6A4
:1008DB0022ECF0A3EDF0A3EEF0A3EFF022D083D047
:1008EB0082E493F608740193F608740293F6087485
:1008FB000393F6740473A8828583F0D083D082129D
:10090B000918120918120918120918E473E493A3B1
:10091B00C583C5F0C583C8C582C8F0A3C583C5F020
:10092B00C583C8C582C822EC8EF0A4CCC5F0CCCD53
:10093B00F8EFA4CEC5F02DFDE43CFCE8A42EC8C511
:10094B00F03DFDE43CFCEFA4FFE5F028FEE43DFDAB
:10095B00E43CFC22EF4E6012EF60010EEDBB010B8D
:10096B0089828A83F0A3DFFCDEFA2289F05007F735
:10097B0009DFFCA9F022BBFEFCF309DFFCA9F02286
:10098B00E0FCA3E0FDA3E0FEA3E0FF22E2FC08E213
:10099B00FD08E2FE08E2FF22E493FC740193FD7470
:1009AB000293FE740393FF22ECF208EDF208EEF2D1
:1009BB0008EFF22290012BE09002A9F06402703252
:1009CB0078A7760178A0E6B4011678A7E6D3940051
:1009DB00400A9000FE7401F0900102F0E478A0F65A
:1009EB009000FEE06003020E859000F0F0A3F00291
:1009FB000E859002A9E0FC64036003020BB8A2977A
:100A0B00335401FE25E0FE9002A8E054FD4EF0E0C9
:100A1B00FF5401FEEFC3135401B5060FE0FF540260
:100A2B00FE25E0FEEF54FB4EF080109002A8E0FF95
:100A3B005402FEC313FEEF54FE4EF0A295E4335462
:100A4B0001FF25E0FF9002AAE054FD4FF0E0FF54B8
:100A5B0001FEEFC3135401B5060FE0FF5402FE2550
:100A6B00E0FEEF54FB4EF080109002AAE0FF540220
:100A7B00FEC313FEEF54FE4EF0A293E4335401FF7A
:100A8B0025E0FF9002ACE054FD4FF0E0FF5401FE77
:100A9B00EFC3135401B5060FE0FF5402FE25E0FE31
:100AAB00EF54FB4EF080109002ACE0FF5402FEC3FB
:100ABB0013FEEF54FE4EF09002A8E054DFF054BF4B
:100ACB00F0E0FF5408FE25E0FEEF54EF4EF0E0FFA0
:100ADB005404FE25E0FEEF54F74EF0E0FFC4540142
:100AEB00FEEF13131354016E6011E0FF30E3054466
:100AFB0020F080079002A8E04440F09002AAE05456
:100B0B00DFF054BFF0E0FF5408FE25E0FEEF54EF9A
:100B1B004EF0E0FF5404FE25E0FEEF54F74EF0E0FC
:100B2B00FFC45401FEEF13131354016E6011E0FF69
:100B3B0030E3054420F080079002AAE04440F09097
:100B4B0002ACE054DFF054BFF0E0FF5408FE25E0A8
:100B5B00FEEF54EF4EF0E0FF5404FE25E0FEEF54A1
:100B6B00F74EF0E0FFC45401FEEF13131354016E64
:100B7B006011E0FF30E3054420F080079002ACE009
:100B8B004440F09002A8E020E31C78B206E6B4647F
:100B9B0005D207020E8578B2E6C394655003020EA8
:100BAB00857665020E85E478B2F6020E85EC640458
:100BBB0070679000FEE064016003020E8578A7E683
:100BCB00FD601E9002ACE0FE30E61654BFF078B12B
:100BDB00E6700476018004E478B1F678B1E678BC6F
:100BEB00F6ED64016003020E859002A8E0FF30E68B
:100BFB000954BFF0789D061235E09002AAE0FF2061
:100C0B00E603020E8554BFF078BCE66003020E8546
:100C1B0078A306123605020E859002A9E0FB640547
:100C2B006003020CE178AAE6FF7E007C007D931244
:100C3B000523EF24B0785FF6EE342318F69000F01E
:100C4B00744CF0A37461F0300605762A0876AA90EE
:100C5B0000FCE0FEA3E0FFD394A0EE940F400D78D0
:100C6B003874F626F61874FF36F68013C3EF949695
:100C7B00EE940F500A7838740A26F618E436F67894
:100C8B0037E6FE08E6FFD394C1EE9456400818767B
:100C9B00560876C18010C3EF9471EE941C50077800
:100CAB0037761C0876717837E6FE08E6FFD3785F57
:100CBB00E69FEE6480F5F018E6648095F04005A69B
:100CCB000608A6079000FEE06003020E859000F078
:100CDB00F0A3F0020E85EB64066003020E2478BCD1
:100CEB00E6F96401600E9000FEE060089002BBE044
:100CFB006407600C9002AB7401F0E478B5F6806980
:100D0B00E49002ABF078B6E6FEB4041018760778E0
:100D1B00A2765578AC7604087612804DEEB40311AA
:100D2B0078B5760778A2766978AC76040876128067
:100D3B0038EEB4021178B5760678A2764F78AC7699
:100D4B000508763C8023EEB4011178B5760578A2C0
:100D5B00764478AC76050876E7800EE478B5F678BD
:100D6B00A2760A78AC761008F678A2E6FD3395E009
:100D7B00FC78AFE6FA08E6FBD39DEC6480F8EA64F6
:100D8B0080984009D200E49002AFF08018D3EB9D1D
:100D9B00EC6480F8EA648098500BC200C378A2E63A
:100DAB009B9002AFF0D378BBE694FA18E6940F4011
:100DBB0004E478B5F6E9640160389002ADE004F024
:100DCB00C394144032E4F030000F78ABE6D39400B8
:100DDB00400116E4789AF6801E78AB069002AFE0DD
:100DEB00FFC3940A5006789AA607800B789A760967
:100DFB008005E49002ADF0789AE6FF78ABE6D39FDE
:100E0B004002A60778B5E6FF78ABE6D39F4002A673
:100E1B000778ABE678A5F680619002A9E0640770CD
:100E2B00599002BBE0640770519000FEE0640170C2
:100E3B004978AAE6FF13B39283EF5402FFC313243E
:100E4B00FFB39282E6FF5404FE1313543F24FFB307
:100E5B009281EF5408FF131313541F24FFB3928096
:100E6B00E6FF5410FEC4540F24FFB392B7EF542087
:100E7B00FFC413540724FFB392B678A4E664017041
:100E8B0041F608E6FF789BE6C39F500678A67603EB
:100E9B008004E478A6F6789B06E6C3940A4002E445
:100EAB00F6C374099FFF78A8E6D39F400678BD76FA
:100EBB00038004E478BDF678A806E6C3940A4002E2
:100ECB00E4F678A6E6D394004017D3900125E0947E
:100EDB00E8900124E094034004C2018006D2018013
:100EEB0002D20178BDE6D394004017D3900125E0E0
:100EFB0094E8900124E094034004C2028006D202DD
:100F0B008002D2029002AEE0702C9000F0F0A3F0C1
:100F1B00D3900134E09432900133E0940050079069
:100F2B0000F5E0B401109002AE7402F09000FE14D4
:100F3B00F0E4900102F0229000EEE0B4012ED39089
:100F4B0000FAE094009000F9E09400400EA3E02436
:100F5B00FFF09000F9E034FFF080119000EF740186
:100F6B00F0E49000EEF0900137E004F0900137E0F0
:100F7B00D394004022D3900100E094F49000FFE062
:100F8B009401500E900125E094C4900124E0940943
:100F9B004005E4900137F09000F0E0FFA3E09001F2
:100FAB0014CFF0A3EFF0A3E0FCA3E0FDE412039A4F
:100FBB00E4FBFA79FA784312031C602B4029785230
:100FCB00E6D394004021900131E475F00112058ABB
:100FDB00FED3E5F09432EE94004013E4900131F02F
:100FEB00A3F07851F68007E4900131F0A3F0E49080
:100FFB000119F09000F5E0702CC3900134E09432AD
:10100B00900133E09400400FD3900117E0942690A9
:10101B000116E0940250089001197401F0800690BB
:10102B0000F57401F09000E8E0640160067834E6A6
:10103B00B401069001047401F0900104E0640170A6
:10104B003F90011904F0D3900117E09426900116FC
:10105B00E094024005E49000E8F07836E6B4010431
:10106B00E47834F6E49000FEF09000E8E07011783C
:10107B0034E6700C900104F0900108F0A37428F092
:10108B00D3900109E09400900108E094004018907F
:10109B0001197401F090010874FFF5F012058A45EF
:1010AB00F0700478A07601900119E0B40107E49088
:1010BB000114F0A3F0900114E0FEA3E0FF9000EB0D
:1010CB00EEF0A3EFF0E490013EF0900135F09000CC
:1010DB00FBF0C3EF94EBEE94014013900118E0701A
:1010EB000590013504F09001187402F08014C39040
:1010FB0000ECE094479000EBE094015005E4900184
:10110B0018F0900118E0FFB4020F900135E0B40124
:10111B000F9001307401F08007EF7004900130F0F4
:10112B009000EFE0B4010BE4F09000FE04F09000AF
:10113B00FBF0900102E0B40107E4F09000FB04F037
:10114B00900135E0B40107E4F09000FB04F090004F
:10115B00FBE0B401069000F87401F0900118E07008
:10116B00049000F8F09000F8E0701212316B785296
:10117B00E6D39400405CE4900130F08055E490009D
:10118B00F8F09001F8F09001EEF0A3F09001F9F077
:10119B007851F6784EF67862F67832F67829F6784A
:1011AB0039F6784DE6784AF6783CE67833F67822CD
:1011BB00E67859F67857E6784FF612316B7852E6A7
:1011CB00D394004007E4900130F080069001307416
:1011DB0001F0900130E0B40111900114E0FEA3E0A6
:1011EB00FF784BA60608A6078006E4784BF608F6B0
:1011FB00C3784CE694EB18E664809481400C900124
:10120B00F8E0B4010576010876EB784BE6FA08E6D0
:10121B00FBC3EA64809490400B78531208E80000FB
:10122B0003848065C3EB94EBEA6480948140387847
:10123B004CE62415FF18E634FEFE3395E0FDFCE486
:10124B007B207A03F9F81206EAE47B157A0EF9F89B
:10125B00120775EF2464FFE43EFEE43DFDE43CFC25
:10126B0078531208D08022C3784CE6944718E66472
:10127B00809481400B78531208E8000000648009C9
:10128B0078531208E800000000E47FEBFEFDFC78C9
:10129B00531208C31206EA782B1208D0D390011709
:1012AB00E094E8900116E094034032E47FE87E037B
:1012BB00FDFC78531208C31206EAC006C007900162
:1012CB0016E0FEA3E0FFFBAA06E4F9F8D007D00670
:1012DB0012077590011AEEF0A3EFF0800D78531200
:1012EB0008B790011AEEF0A3EFF090011AE0FEA3FD
:1012FB00E0FFE4FCFD7BA07A0FF9F8C312082B503A
:10130B000A90011A740FF0A374A0F02290012BE045
:10131B0004F0C3940A4002E4F0900133E475F00149
:10132B0012058AAFF0FEE4FCFD7B607AEAF9F8D394
:10133B00120815500A90013374EAF0A37460F09010
:10134B0002BBE0702D900124F0A3F09000FF75F02C
:10135B000112058AAFF0FEE4FCFD7B607AEAF9F836
:10136B00C312081550409000FF74EAF0A37460F0AC
:10137B0080349002BBE0B40726900124E475F001A1
:10138B0012058AAFF0FEE4FCFD7B607AEAF9F8C344
:10139B00120815500A90012474EAF0A37460F0E46B
:1013AB009000FFF0A3F0900034E0FEA3E07803CEB2
:1013BB00C313CE13D8F97930F7EE19F79000E4E0A8
:1013CB00FEA3E07803CEC313CE13D8F979BBF7EEA7
:1013DB0019F7900000E0FEA3E07803CEC313CE1301
:1013EB00D8F9FF900112EEF0A3EFF090011FE0FE91
:1013FB00A3E0FF90029DE0FCA3E0FDD39FEC9E4099
:10140B001BED9FFFEC9EFEEF7803CEC313CE13D8DC
:10141B00F9FF900105EEF0A3EFF08007E4900105D2
:10142B00F0A3F0900112E0FEA3E0FF7C127DED1221
:10143B000932780C12083C900116EEF0A3EFF090F5
:10144B000105E0FEA3E0FF7C397D71120932780CB7
:10145B0012083C9000FCEEF0A3EFF090012BE02083
:10146B00E03D9040D4E0FEA3E0FFEE3395E0FDFCC1
:10147B00E47BE47A57F9F81206EA780C12083C7808
:10148B00231208D0900112E0FEA3E0FF900105E0CB
:10149B00FCA3E0FD12093278461208D002156690C3
:1014AB0000FCE0FCA3E0FDE412039A7B007A807958
:1014BB00BB784512031C503290010CE475F00112FD
:1014CB00058AFEC3E5F09404EE94004027E49001F6
:1014DB000CF0A3F0782276017859760190012A74EA
:1014EB0002F01236C91233F5800AE47822F6900125
:1014FB000CF0A3F0D39000FDE094889000FCE094F6
:10150B0013402E90013CE475F00112058AFEC3E5F1
:10151B00F094EEEE940240347859760190012A74DF
:10152B0003F0E490013CF0A3F01236C91233F580BE
:10153B001BC390013DE0940290013CE09400400CF1
:10154B00A3E024FEF090013CE034FFF0121FD51213
:10155B001E73122234122DC4122FEF90012BE0FFB9
:10156B0064036008EF64076003021617900116E02E
:10157B00FCA3E0FDE412039A7B007A407983784563
:10158B0012031C501D900107E004F0C3940A401A8B
:10159B00E4F0783C7601783376011236C91237388D
:1015AB008008E4783CF6900107F0900116E0FCA36C
:1015BB00E0FDE412039AE4FBFA79FA784312031C78
:1015CB006021401F90012EE004F0C3940A40199053
:1015DB000103E0B402069000E87401F0E49001030B
:1015EB00F08005E490012EF0D3900117E094269043
:1015FB000116E09402500302168A9001037402F064
:10160B00E49000F2F0A3F0784DF6807390012BE09C
:10161B0064057061200B57D20B122832D37861E628
:10162B00945A18E664809480402790011CE004F0E3
:10163B009402404BE4F090010BE0940250097402C9
:10164B00F01236C9123738784F7601785776018009
:10165B002EE490011CF0C37861E6945818E6648080
:10166B009480501BE490010BF07857F68011C20B5D
:10167B00122903800A90012BE0B40103121D10788C
:10168B003BE6B40114E4F67841F6783D06E6C394E4
:10169B000A4006760A78367601784106E6C3942C22
:1016AB00748094814014762CE4783DF67836E6B459
:1016BB00010478347601E47836F690012BE0B40916
:1016CB000690012F7401F022C0E0C0F0C083C082ED
:1016DB00C0D075D000C000C001C002C003C004C0A0
:1016EB0005C006C007904061E020E703021908908F
:1016FB004039E04440F090010A7401F09002BBE0E5
:10170B00B407359040D8A3E025E0FF0582D58202CF
:10171B0015831582E033900004F0A3EFF0900004E2
:10172B00E0FEA3E0FFA3E0FCA3E0FD7B1412355E1B
:10173B00900006EEF0A3EFF09002BBE0FF640160B7
:10174B003FEF603C9040D4E0FEA3E0FF90000EE042
:10175B00FCA3E0FD7B1E12355E90000EEEF0A3EFB6
:10176B00F09040D6E0FEA3E0FF900016E0FCA3E073
:10177B00FD7B0A12355E900016EEF0A3EFF08007AA
:10178B0090000EE4F0A3F09040BAE0FEA3E0FF90CF
:10179B00001EE0FCA3E0FD7B0A12355E90001EEEFE
:1017AB00F0A3EFF09040B8E0FEA3E0FF900020E044
:1017BB00FCA3E0FD7B0A12355E900020EEF0A3EF58
:1017CB00F0900306E0FEA3E07803C333CE33CED80C
:1017DB00F9FF90029DE0FCA3E0FD7B3212355E9099
:1017EB00029DEEF0A3EFF0900304E0FEA3E078037C
:1017FB00C333CE33CED8F9FF9000DEEEF0A3EFF07B
:10180B009000DEE0FEA3E0FF900000E0FCA3E0FD13
:10181B007B3C12355E900000EEF0A3EFF0900302DC
:10182B00E0FEA3E07803C333CE33CED8F9FF9000AC
:10183B00E4EEF0A3EFF09000E4E0FEA3E0FF9001F4
:10184B00A9E0FCA3E0FD7B1412355E9001A9EEF03C
:10185B00A3EFF090030EE0FEA3E07803C333CE3387
:10186B00CED8F9FF900034E0FCA3E0FD7B0A1235E3
:10187B005E900034EEF0A3EFF0D39001E4E094001F
:10188B009001E3E09400400CA3E024FFF09001E30F
:10189B00E034FFF0D3787EE6940018E6940040071E
:1018AB0008E616187001169000A2E0D394004003CE
:1018BB00E014F0D3900031E09400900030E09400FD
:1018CB00400FA3E024FFF0900030E034FFF0122B28
:1018DB00B59002BBE0B4071BD3900033E0940090AB
:1018EB000032E09400400CA3E024FFF0900032E0C3
:1018FB0034FFF0123462904061E0547FF0539F7FCD
:10190B00539FBF539FDFD007D006D005D004D00321
:10191B00D002D001D000D0D0D082D083D0F0D0E094
:10192B00329002BBE0FF64076008EF6408600302BB
:10193B001B6F900002E0FEA3E0FFEE6003021B6F43
:10194B00EF146079147003021A8124026003021BE6
:10195B006F9040D4E0FEA3E0D39422EE6480948297
:10196B005003021B6F9040947410F0A3E4F0A37427
:10197B000CF0A374CCF075F51475F404E4F5F7F5DD
:10198B00F6900002F0A37402F0904092E0FFA3E007
:10199B00900008CFF0A3EFF0900008E0FEA3E0FF6B
:1019AB008EED8FEC75EF0475EECC75F30075F228A8
:1019BB009000407402F090003F7405F022784612BC
:1019CB0008B7AB07AA06A905A804C004C005C00642
:1019DB00C007782B1208B7D003D002D001D000C3B8
:1019EB00EF9BFFEE9AFEED99FDEC98FC90026D12C9
:1019FB0008DCE4FFFEFDFC90026DE0F8A3E0F9A328
:101A0B00E0FAA3E0FBC31208154023E47F107E2706
:101A1B00FDFC90026DE0F8A3E0A3E0A3E012081533
:101A2B00403290026D1209010000271080267FF0D2
:101A3B007ED87DFF7CFF90026DE0F8A3E0F9A3E078
:101A4B00FAA3E0FBD3120815500A90026D1209019C
:101A5B00FFFFD8F090026DE0A3E0A3E0FEA3E0FF50
:101A6B00900275EEF0A3EFF07C007D0312052312BC
:101A7B003700122D4922900026E475F00112058AD9
:101A8B00FEC3E5F09405EE94005003021B6FE49047
:101A9B000026F0A3F090000EE0FEA3E0FFD394C667
:101AAB00EE648094B140149040947416F0A3746665
:101ABB00F0A37426F0A37466F0801CC3EF94E3EEDE
:101ACB006480949850119040947410F0A3E4F0A3A8
:101ADB00740CF0A374CCF090000EE0FEA3E0FFC3F7
:101AEB007828E69FFF18E69EFE3395E0FDFC9002FA
:101AFB00711208DCE47F107E27FDFC900271E0F888
:101B0B00A3E0F9A3E0FAA3E0FBD3120815400C9075
:101B1B0002777427F0A37410F0803B7FF07ED87DA2
:101B2B00FF7CFF900271E0F8A3E0F9A3E0FAA3E0D9
:101B3B00FBC3120815500C90027774D8F0A374F005
:101B4B00F08013900271E0A3E0A3E0FFA3E090020A
:101B5B0077CFF0A3EFF0900277E0FEA3E0FF123710
:101B6B0000122D49229002BBE0B40C004003021D71
:101B7B000F901B83F8282873021BA7021BE2021B82
:101B8B00F5021C15021C2B021C42021C59021C5D87
:101B9B00021C8B021D0F021D0F021CF712342C901E
:101BAB000253E064016003021D0F9000D5E0640155
:101BBB006003021D0F900030E07002A3E06003028F
:101BCB001D0F9002BB04F0904082E4F0A3F0A3F051
:101BDB00A3F0A3F0A3F0221236AC9002BB7402F078
:101BEB0090003014F0A3742CF02212267890003061
:101BFB00E07002A3E06003021D0FC2FF9002BB74F2
:101C0B0003F0E4900030F0A3F0229002BB7404F0D8
:101C1B009002B8E054DFF074FF90000CF0A3F022B8
:101C2B00E490000CF0A3F09002BB7405F090003030
:101C3B00E4F0A37464F022122CCD900030E070021B
:101C4B00A3E06003021D0F9002BB7406F022122961
:101C5B00D4229000D5E06003021D0F9002BB7408E4
:101C6B00F0900030E4F0A374C8F0904092E4F0A33D
:101C7B00F0C2FF904062E054DFF09040A0E4F0220D
:101C8B00900030E07002A3E0707AC2FF9040A0F0A9
:101C9B00904062E054DFF090405EE0FFA3E09040A4
:101CAB0058CFF0A3EFF090405CC083C082E0FFA35D
:101CBB00E054C0D082D083CFF0A3EFF090405CC053
:101CCB0083C082E0FFA3E04415D082D083CFF0A382
:101CDB00EFF0904062E054F7F0D2FF9002BB740B30
:101CEB00F09000307401F0A37490F022900030E07B
:101CFB007002A3E0700EC2FF904062E054DFF0E48C
:101D0B009002BBF0229001F8E06003021DFA9040B4
:101D1B00D4E0FEA3E0D3784096EE189650439002A1
:101D2B0002E004F0C39405400E7405F0E49001ED5D
:101D3B00F0900209F0A3F09001F6E475F0011205A2
:101D4B008AFEC3E5F0942CEE94015003021E219001
:101D5B0001F67401F0A3742CF0E49001F9F0021E6B
:101D6B00219001EDE004F0C39405400E7405F0E4FE
:101D7B00900202F09001F6F0A3F09001F9E07025CB
:101D8B0090020975F00112058AFED3E5F094C8EEB6
:101D9B0094004035900209E4F0A374C8F09001F868
:101DAB007401F08024900209E475F00112058AFE9B
:101DBB00D3E5F0940AEE9400400F900209E4F0A3EF
:101DCB00740AF09001F87401F09001F8E06401706E
:101DDB0045A3E004F0D39400403CE4F09001F8F00C
:101DEB00785176019001017403F01236C980279067
:101DFB0001F8E0B401209001EEE475F00112058AC0
:101E0B00FEC3E5F09432EE9400400BE49001EEF04B
:101E1B00A3F09001F8F09040D4E0FEA3E0D39471CE
:101E2B00EE945C403B900125E094F4900124E09407
:101E3B00014034900203E475F00112058AFED3E5EC
:101E4B00F09464EE9400401FE4900203F0A3F0784A
:101E5B005176019001017402F01236C91233F5224A
:101E6B00E4900203F0A3F0229002BBE0640760034E
:101E7B00021FD4D39000C6E094E89000C5E06480C4
:101E8B0094835045A3E004F070069000C5E004F085
:101E9B00D390000FE0947190000EE0648094DC40CE
:101EAB0028900017E09414900016E09400501AE468
:101EBB009000C5F0A3F0789076017832760190010E
:101ECB002604F01236C91233F5D39000C0E094E823
:101EDB009000BFE0648094834003021F8CA3E00456
:101EEB00F070069000BFE004F09000C2E004F070C8
:101EFB00069000C1E004F0C39000C2E094DC9000B7
:101F0B00C1E0648094855003021F937405F0A374A1
:101F1B00DCF0900017E09405900016E0940050421E
:101F2B009000BEE004F070069000BDE004F0C3909A
:101F3B0000BEE094149000BDE0648094804049E4BE
:101F4B009000C1F0A3F09000BDF0A3F07890760262
:101F5B00783276019001267402F01236C91233F5ED
:101F6B008026D39000BEE094009000BDE064809486
:101F7B00804015A3E024FFF09000BDE034FFF0801B
:101F8B0007E49000BDF0A3F0900002E07002A3E024
:101F9B0070379000C4E004F070069000C3E004F0CA
:101FAB00C39000C4E094909000C3E064809481409F
:101FBB0018E4F0A3F078907603783276019001263E
:101FCB007403F01236C91233F5229040CAE0FFA316
:101FDB00E09001F0CFF0A3EFF09040C8E0FFA3E05A
:101FEB009001F2CFF0A3EFF09001F0E0FAA3E0FB49
:101FFB00C3E49BFFE49AFEA3E0FCA3E0FDC3EF9DCB
:10200B00FFEE9CA3F0A3EFF0C3EA64809480401131
:10201B009001F0E0FEA3E0FF7882A60608A60780F9
:10202B00149001F0E0FEA3E0FFC3E49FFFE49E7871
:10203B0082F608A607C3EC6480948040097884A6D6
:10204B000408A605800CC3E49DFFE49C7884F60885
:10205B00A6079001F4E0FEA3E0FFC3EE648094803A
:10206B0040097886A60608A607800CC3E49FFFE408
:10207B009E7886F608A6077882E6FE08E6FF9002B1
:10208B0007EEF0A3EFF008E6FC08E6FDC3EF9DEECC
:10209B009C5008900207ECF0A3EDF07886E6FE0862
:1020AB00E6FFC3900208E09F900207E09E5005EE0A
:1020BB00F0A3EFF0D3900208E094AA900207E0643B
:1020CB008094BE402B900125E094F4900124E09481
:1020DB0001402A788106E69408402278227601781E
:1020EB0059760190012A7401F01236C91233F52288
:1020FB00E47822F67881E6D39400400116229040D2
:10210B0062E054DFF0E04420F09040A0E4F0A3F054
:10211B00904090F0A3F0A3F0A3F09040CCF0A3F08C
:10212B009040AAF0A3F09040A8F0A3F09040ACF040
:10213B009040AE04F0A3746CF09040AD7402F0903C
:10214B0040B0743FF0A374FFF0A374C0F0A374010C
:10215B00F0A3747EF0A374B7F0A37481F0A3744959
:10216B00F090408C7458F0A374E1F0A37429F0A3A1
:10217B00749CF09040887421F0A3743AF0A3E4F0BF
:10218B00A3F09040807410F0A3E4F090407EF0A395
:10219B007480F090407C7464F0A37487F09040A33B
:1021AB00E4F09040A1E0547FF0904078746CF0A381
:1021BB0074CBF0A37402F0A3743BF09040A0E04406
:1021CB0001F09000DAE0B40109904062E04440F085
:1021DB008007904062E054BFF0904062E054BFF043
:1021EB00300604E04440F09040A0E054F3F09040FF
:1021FB00A274C4F09040A57415F09040A1E054DF98
:10220B00F053D69F900253E0B401169040A1E054D6
:10221B00F3F090024BE0FFA3E09040A6CFF0A3EFCA
:10222B00F0904062E04408F0229002BBE06407604B
:10223B000302235AD39000A8E094E89000A7E094FF
:10224B0003500DA3E004F070069000A7E004F02209
:10225B00900016E0FEA3E0FFC3940AEE9400401931
:10226B009040D4E0FCA3E0D39491EC648094804044
:10227B003DEF9428EE940050359000AAE004F070E6
:10228B00069000A9E004F0C39000AAE0940A900025
:10229B00A9E094004033E4F0A3F078937601900129
:1022AB002304F07862F61236C91233F5801BD390F3
:1022BB0000AAE094009000A9E09400400CA3E02455
:1022CB00FFF09000A9E034FFF090000EE0FEA3E0D9
:1022DB00FFC39471EE6480949C400BD3EF948DEE0E
:1022EB00648094E3404E9000ACE004F070069000E4
:1022FB00ABE004F0C39000ACE094089000ABE0942A
:10230B0000404CE4F0A3F07893760290000FE09439
:10231B007190000EE06480949C500890012374022D
:10232B00F080069001237403F0786276011236C9AF
:10233B001233F522D39000ACE094009000ABE09404
:10234B0000400CA3E024FFF09000ABE034FFF02240
:10235B00C2AF900293E0600302247704F0E4900292
:10236B007FF090027FE0C394045023E0FF2400FD34
:10237B00E4343E8D82F583E493FE74992FF582E469
:10238B003402F583EEF090027FE004F080D49002EB
:10239B0099E064A56019900294E4F0A304F012375D
:1023AB00441230539002967402F0A37408F02290FA
:1023BB0002967401F090027FF090027FE0FFD394BD
:1023CB001E5025EF75F004A42400FFE5F0343E8F7A
:1023DB0082F583E493B4A50890027FE0900296F017
:1023EB0090027FE004F080D1900296E0FD25E0257D
:1023FB00E0FFA3F0FC90029CE0FE90029BE07A00D1
:10240B002400FFEA3E900294F0A3EFF0ECFF7E0075
:10241B002401FBEE343E8B82F583E493789DF6EF3B
:10242B002402FFEE343E8F82F583E49378A3F6EC1F
:10243B002403FFEE343E8F82F583E49378B1F6EDFF
:10244B00C3941E401C900295E004F0700690029419
:10245B00E004F01230539002967402F0A37408F06B
:10246B0022900296E004F0A3E02404F022E4900210
:10247B00BCF0A3F09002BCE475F0011205A0FEC302
:10248B00E5F09410EE942740EB7F30EFC394FF50B0
:10249B0007A807E4F60F80F3E4FFFED3EF94FFEEFB
:1024AB009402500D8F828E83E4F00FEF70010E803B
:1024BB00EA78FFE4F612257D122B21E49002BBF0A3
:1024CB0090008BF012235B1235E012360512375B4E
:1024DB0012337B1231C31236E5122E3C123718120F
:1024EB00310F12362A12352F12372A900253E07011
:1024FB002212275E900253E0B401F0E4900251F0F7
:10250B00A3F090024BE0FFA3E090011FCFF0A3EFED
:10251B00F080D890010AE0B401D1E4F01213171245
:10252B0009BF90012FE0B40105E4F0120F42784B84
:10253B00E6FE08E6FFC394EBEE64809481401090B6
:10254B0000D57401F09000C9E4F0A304F08016C329
:10255B00EF9447EE64809481500BE49000D5F0909B
:10256B0000C9F0A3F0121B7012192C122F20022499
:10257B00F6227E007F397D007B017A00799012096B
:10258B005F7E007F0C7D007B007A00798E12095FE5
:10259B007E007F0D7D007B007A00798112095F7EC2
:1025AB00007F097D007B017A00796012095F7E0054
:1025BB007F457D007B017A00790012095F7E007FE9
:1025CB00087D007B017A0079DE12095F7E007F15A2
:1025DB007D007B017A02793F12095F90024112095B
:1025EB000100003FFF90024712090100003FFF90DE
:1025FB00024D12090100003FFF7E007F077D007B2B
:10260B00017A00798412095F9000877413F0A37428
:10261B0087F07E007F0F7D007B017A0079C912095C
:10262B005F9000D3E4F0A304F07E007F1B7D00FBE2
:10263B007A00794512095F7E007F397D007B017A34
:10264B0001793F12095F7E007F097D007B017A00D3
:10265B00797B12095FE49002B8F09000DDF09000F6
:10266B00DAF09000D87414F0A37478F0229002B8CA
:10267B00E020E134E04402F090405EE0FCA3E0FD9A
:10268B00E412039A7BCD7ACC79CC783D1201761289
:10269B0003D3904058EEF0A3EFF0904062E054F774
:1026AB00F0E490002EF0A3F0C3900031E0942C9056
:1026BB000030E09401502990002EE07002A3E070EE
:1026CB001F90002EF0A304F090405CC083C082E00A
:1026DB00FFA3E04401D082D083CFF0A3EFF0D2FF71
:1026EB00D3900031E094C8900030E09400502A90D1
:1026FB00002EE07004A3E06401701E90002EF0A386
:10270B007402F090405CC083C082E0FFA3E04404FD
:10271B00D082D083CFF0A3EFF0D3900031E094645C
:10272B00900030E09400502A90002EE07004A3E05B
:10273B006402701E90002EF0A37403F090405CC0F6
:10274B0083C082E0FFA3E04410D082D083CFF0A3FC
:10275B00EFF022900253E06003022831904039E001
:10276B004440F0904039E020E6F990024DE0F8A3A8
:10277B00E0F9A3E0FAA3E0FBC000C001C002C00374
:10278B00900308E0540FFEA3E07803C333CE33CE9F
:10279B00D8F9FFE4FCFDD003D002D001D000EB2F21
:1027AB00FFEA3EFEED39FDEC38FC90024D1208DCE1
:1027BB0090024DE0FCA3E0FDA3E0FEA3E0FF780454
:1027CB0012084F90024BEEF0A3EFF0A3E0FCA3E056
:1027DB00FDA3E0FEA3E0FFC006C00790024BE0FEA6
:1027EB00A3E0FFFBAA06EA3395E0F9F8D007D00681
:1027FB00C3EF9BFFEE9AFEED99FDEC98FCA312083C
:10280B00DC900252E004F07006900251E004F0D329
:10281B00900252E094D0900251E06480948740067D
:10282B009002537401F022782FE6FE08E6FFD39452
:10283B0037EE940D40030228FBEF9421EE940A40EF
:10284B002318E6FC08E6FD900285740DF0A374379F
:10285B00F07B217A0A7F327E001234987860A606CC
:10286B0008A60722782FE6FC08E6FDD394BAEC9471
:10287B0006401D900285740AF0A37421F07BBA7A8E
:10288B00067F4B7E001234987860A60608A60722B6
:10289B00782FE6FC08E6FDD39415EC9404401D90CC
:1028AB0002857406F0A374BAF07B157A047F647EFC
:1028BB00001234987860A60608A60722782FE6FC4B
:1028CB0008E6FDD3946AEC9402401D9002857404D3
:1028DB00F0A37415F07B6A7A027F7D7E0012349828
:1028EB007860A60608A607227860760008767D2217
:1028FB00786076000876192278BAE6FE08E6FFD3F0
:10290B009498EE940A40030229CCEF949BEE940624
:10291B00402318E6FC08E6FD900285740AF0A374C8
:10292B0098F07B9B7A067F327E0012349878AFA6A4
:10293B000608A6072278BAE6FC08E6FDD39492ECCB
:10294B009403401D9002857406F0A3749BF07B9258
:10295B007A037F4B7E0012349878AFA60608A60741
:10296B002278BAE6FC08E6FDD394D8EC9401401D1E
:10297B009002857403F0A37492F07BD87A017F6484
:10298B007E0012349878AFA60608A6072278BAE61E
:10299B00FC08E6FDD394F7EC9400401D900285747F
:1029AB0001F0A374D8F07BF77A007F7D7E001234A0
:1029BB009878AFA60608A6072278AF760008767D32
:1029CB002278AF7600087619229002B8E030E40343
:1029DB00022A65E04410F09040CCE4F0A3F0904064
:1029EB00CCE0FEA3E024CDFFEE34ECA3F0A3EFF09C
:1029FB009040CEE0FFA3E09002B9CFF0A3EFF090B0
:102A0B004090E4F0A3F0900008740AF0A37471F006
:102A1B00904094740CF0A374CCF0A37401F0A374E5
:102A2B0047F0904074740CF0A37488F0A3E4F0A307
:102A3B00748AF0904082E4F0A3741CF0A3E4F0A33A
:102A4B0074DAF0A37402F0A3748FF09040A0E0440A
:102A5B0040F0E054DFF0E04410F0900030E4F0A3DD
:102A6B007478F09002BB7407F0900008E0FFA3E0CD
:102A7B00904092CFF0A3EFF022C0E0C0F0C083C033
:102A8B0082C0D075D000C000C001C002C003C0041A
:102A9B00C005C006C007E5D730E7609002BBE06415
:102AAB0004600C1236C91233F5784E76018049C298
:102ABB00FF90019DE0FF25E02489F582E43401F5C8
:102ACB0083E5ABF0A3E5AAF0EF25E02489F582E4DA
:102ADB003401F583E0FEA3E0FF90019DE025E024A7
:102AEB0079F582E43401F583EEF0A3EFF0E4F5AB76
:102AFB00F5AA90019DE004F053D77FD007D006D004
:102B0B0005D004D003D002D001D000D0D0D082D0D9
:102B1B0083D0F0D0E0327E007F197D007B017A02FA
:102B2B00792412095FE49002BEF0FF7E3F12333925
:102B3B009002BFEFF064116037E0FF64216031EF6A
:102B4B006441602CEF64126027EF64226022EF6413
:102B5B0042601DEF64146018EF64246013EF64444B
:102B6B00600EEF64186009EF64286004EFB4481C32
:102B7B009002BFE0900238F0540F900229F09002BF
:102B8B00BFE0547090022AF0E4A3F0229002297463
:102B9B0001F0A37410F0E4A3F090022AE0FF90027E
:102BAB0029E06F900238F0A3F0229002BBE064079B
:102BBB006003022C40900030E0FEA3E0FFB42C1623
:102BCB00EEB40112904074740DF0A3741AF0A3E4E8
:102BDB00F0A37497F022EF64C84E70129040747497
:102BEB000DF0A374ACF0A3E4F0A374A4F022EF6493
:102BFB00964E7012904074740FF0A37461F0A3E4BE
:102C0B00F0A374D0F022EF64644E70119040747492
:102C1B0011F0A37417F0A37401F0A3F022EF643248
:102C2B004E70129040747414F0A37482F0A374016C
:102C3B00F0A37472F022787FE4F6D8FD7581DA0286
:102C4B002C88022478E493A3F8E493A34003F68042
:102C5B0001F208DFF48029E493A3F85407240CC88D
:102C6B00C333C4540F4420C8834004F45680014638
:102C7B00F6DFE4800B01020408102040809035B889
:102C8B00E47E019360BCA3FF543F30E509541FFE63
:102C9B00E493A360010ECF54C025E060A840B8E4D4
:102CAB0093A3FAE493A3F8E493A3C8C582C8CAC557
:102CBB0083CAF0A3C8C582C8CAC583CADFE9DEE7E9
:102CCB0080BE9002B8E020E274E04404F0122109C7
:102CDB00904090E4F0A3F0A37403F0A3740BF0A363
:102CEB007410F0A3E4F0A3F0A37428F09040747474
:102CFB000CF0A37488F0A3E4F0A3748AF09040CC9A
:102D0B00E4F0A3F09040CCE0FEA3E02400FFEE340F
:102D1B00F0A3F0A3EFF09040CCE0FFA3E09002B95A
:102D2B00CFF0A3EFF090405CC083C082E0FFA3E044
:102D3B00443FD082D083CFF0A3EFF0D2FF2290405C
:102D4B008EE0FEA3E0C394CAEE648094B15027904A
:102D5B00408EE0FFA3E090001BCFF0A3EFF0E02448
:102D6B000AF090001BE03400F0E0FFA3E090408EEF
:102D7B00CFF0A3EFF02290408EE0FEA3E0D394DEE1
:102D8B00EE648094B1402790408EE0FFA3E090006A
:102D9B001BCFF0A3EFF0E024F6F090001BE034FF24
:102DAB00F0E0FFA3E090408ECFF0A3EFF022904035
:102DBB008E7431F0A374D4F02290011AE0FEA3E0DC
:102DCB00FF90012CE0FCA3E0FDC39FEC9E501CE0A8
:102DDB00240AF090012CE03400F0D3A3E09F900183
:102DEB002CE09E404BEEF0A3EFF022D3ED9FEC9E38
:102DFB00403ED390012DE0940A90012CE0940040CA
:102E0B000EA3E024F6F090012CE034FFF08007E4F1
:102E1B0090012CF0A3F090011AE0FEA3E0FFC39009
:102E2B00012DE09F90012CE09E5005EEF0A3EFF0FA
:102E3B0022D20E7F011232AC904052E04420F0902F
:102E4B004039E04480F090404FE04410F0E4FFFE46
:102E5B00C3EF94D0EE940750070FEF70010E80F084
:102E6B00904052E04410F0904051E044B8F0904054
:102E7B0036C083C082E0FFA3E0449ED082D083CFD4
:102E8B00F0A3EFF0904036C083C082E04430FFA344
:102E9B00E0D082D083CFF0A3EFF09040387433F0C2
:102EAB00A3E054FCF0228F828E83E0F5C78F828ED5
:102EBB0083A3E0F5C68F828E83A3A3E0F5C58F8233
:102ECB008E83A3A3A3E0F5C48D828C83E0F5CDAEF6
:102EDB0004AF058F828E83A3E0F5CC43C101E5C11E
:102EEB0030E703D38001C350F57B017A027979E592
:102EFB00C785C6F012069E740229F9E43AFAE5C5B5
:102F0B0085C4F012069E900279E0FCA3E0FDA3E0DD
:102F1B00FEA3E0FF22900104E0B4010E9002BBE09F
:102F2B007008900292E0700204F0900292E064014B
:102F3B00703B7402F0C2AF900296E0D3941E401D1A
:102F4B00900295E004F07006900294E004F01230C9
:102F5B00539002967402F0A37408F0800E12326143
:102F6B00900296E004F0A3E02404F0D2AF9002921A
:102F7B00E0B4020A900104E07004900292F0227E09
:102F8B00007F397D007B017A00799012095F7E000A
:102F9B007F457D007B017A00790012095F7E007FFF
:102FAB00077D007B017A00798412095F900087749A
:102FBB0013F0A37487F07E007F247D007B017A01E0
:102FCB0079A512095FE49002B8F090008C12090108
:102FDB003F333333E490023BF09000327403F0A3A1
:102FEB0074E8F022785EE6FE08E6FFC37828E69FD9
:102FFB00EE6480F5F018E6648095F0502008742498
:10300B0026F618E436F6D308E69FEE6480F5F01842
:10301B00E6648095F04030A60608A607227828744F
:10302B00DC26F61874FF36F6C308E69FEE6480F5CF
:10303B00F018E6648095F0500E785EE6FE08E6FF29
:10304B007827A60608A607227F007E3E1234CC7D89
:10305B00A57F007E3E1234FE7D5A7F017E3E1234E8
:10306B00FE900294E0A3E0FD7F027E3E1234FE90C0
:10307B000294E0FD7F037E3E1234FE7DA57F047E2D
:10308B003E1234FE789DE6FD7F057E3E1234FE78BF
:10309B00A3E6FD7F067E3E1234FE78B1E6FD7F0788
:1030AB007E3E1234FE22A807E6F5C7E804F8E6F5E3
:1030BB00C6EF2402F8E6F5C5EF2403F8E6F5C4A83D
:1030CB0005E6F5CDE804F8E6F5CC43C101E5C130E2
:1030DB00E703D38001C350F57B017A027979E5C709
:1030EB0085C6F012069E740229F9E43AFAE5C58505
:1030FB00C4F012069E900279E0FCA3E0FDA3E0FE73
:10310B00A3E0FF2290405E7401F0A374F4F0A3746B
:10311B0018F0904062E04404F090405CC083C082A1
:10312B00A3E0543FFFD082D083E4F0A3EFF053F839
:10313B00C0904061E054EFF0E054FC4402F090404A
:10314B005AE4F0A374FAF0D2BFC2BE904061E044DF
:10315B0004F0A3E04480F0E054EFF0E04401F022EF
:10316B007832E6FFC4333354C0FF7862E6FEC433D3
:10317B00333354802FFF7851E6FEC43354E02FFFD6
:10318B00784FE6FEC454F02FFF784AE6FE33333314
:10319B0054F82FFF7833E6FE25E025E02FFF785912
:1031AB00E6FE25E02F784E267952F77839E6FF2593
:1031BB00E07829267935F722904053E04420F0E05F
:1031CB004440F043FF40D2B643FF80D2B743FC01EB
:1031DB00D28043FC02D28143FC04D28243FC08D24E
:1031EB008343FD01A3E04401F0D29043FD02E04490
:1031FB0002F0D29153FD7FE04480F053FDDFE044B9
:10320B0020F053FDF7E04408F022C0E0C0F0C0838B
:10321B00C082C0D075D000C000C001C002C003C0C6
:10322B0004C005C006C007904061E030E40D1233C6
:10323B00BA121FD5904061E054EFF0D007D006D002
:10324B0005D004D003D002D001D000D0D0D082D092
:10325B0083D0F0D0E032900297E02400FFE4343EBC
:10326B00FE7DA51234FE00900297E02401FFE434AA
:10327B003EFE789DE6FD1234FE00900297E024029C
:10328B00FFE4343EFE78A3E6FD1234FE0090029775
:10329B00E02403FFE4343EFE78B1E6FD1234FE0079
:1032AB0022EF14601314601B146023240370269008
:1032BB00404FE0543FF0801D90404FE0543F44405E
:1032CB00F0801290404FE0543F4480F080079040D4
:1032DB004FE044C0F090404FE054EFFF300E047EBF
:1032EB001080027E00EF4E90404FF022C0E0C0F005
:1032FB00C083C082C0D075D000C000C001C002C066
:10330B0003C004C005C006C0071236C91233F578D6
:10331B004E7601D007D006D005D004D003D002D012
:10332B0001D000D0D0D082D083D0F0D0E032AD0726
:10333B00AC06E4FFEFC394805033EF2DFBE43C8BE2
:10334B0082F583E493FE701BEF601524FFFBE434DE
:10335B00FFFAEB2DFBEA3C8B82F583E493FEFF2215
:10336B007F0022EFB47F03AF06220F80C77F0022BE
:10337B00904051E04480F053D69FE04440F043FE30
:10338B0040904035E054BFF090404B74F8F09040C3
:10339B0035E04480F043D60853D9FBE5D954E744D4
:1033AB0008F5D9E5D954FC4403F5D943D61022903E
:1033BB00005FE0B401147F4B7D531230B190005588
:1033CB00EEF0A3EFF0E490005FF0900018E0B40192
:1033DB00187E007F107C007D16122EB1900019EE26
:1033EB00F0A3EFF0E4900018F0229000EEE07030C4
:1033FB0004F0C3900125E094C4900124E09409509B
:10340B001C900137E0C3940250139000F9E0700256
:10341B00A3E0700C9000F9F0A3740AF02212373875
:10342B00229002B8E020E02EE04401F0904062E0F0
:10343B0054DFF0C2FF904036C083C082E0FFA3E0B0
:10344B00449FD082D083CFF0A3EFF0E4900253F0EF
:10345B00900251F0A3F0229002BBE0B4032EC39074
:10346B000214E094FA900213E09400500DA3E004D0
:10347B00F07006900213E004F022E490020DF0A32A
:10348B00F0900213F0A3F090021A04F02290027F46
:10349B00EEF0A3EFF0C3ED9BFFEC9AFE7C007D19E1
:1034AB00120523C3900286E09BFD900285E09AFCF7
:1034BB00120535C3900280E09FFF90027FE09EFED5
:1034CB0022A2AF920EC2AFC3EF9480EE943F501482
:1034DB0075850375845A75841F008F828E8374A53E
:1034EB00F0758508A20E92AFE58530E4037F0122CB
:1034FB007F0022A2AF920EC2AFC3EF9480EE943F37
:10350B00501375850175845A75841F008F828E83C5
:10351B00EDF0758508A20E92AFE58530E4037F01CF
:10352B00227F00227844760008765A78427600088B
:10353B00760A783F76580876E3785A1208E8000145
:10354B00E848783776560876C19001107410F0A3CE
:10355B00E4F02290027DEEF0A3EFF0AF038FDD904D
:10356B00027DE0FEA3E0FF8EDF8FDEAE04AF058EA3
:10357B00E78FE643F9010000000000AFE6AEE7225B
:10358B0075EF0475EECC75F30075F228E4F5EBF5E9
:10359B00EA53F9FB43F90275F51475F404F5F7F5E5
:1035AB00F600000000F5EDF5EC53F9FD2248029F03
:1035BB00000000000000000044008C3F333333C197
:1035CB0081C1824101C9004101CA00C10D010A003C
:1035DB004101A40000789DE6FF6005C3947D400483
:1035EB00789D7601789DE6FFD3943F500578AAA687
:1035FB000722C3747E9F78AAF62278A3E6FF6005A4
:10360B00C39405400478A3760178A3E6FFD3940313
:10361B00500578B6A60722C374069F78B6F62253D8
:10362B00FEFE904055E054FEF0904051E054FEF009
:10363B0053D4FE43D301C28CC28BC2BDD2BCD2AA1F
:10364B00D2AF22C0D075D000C000C28A783B7601C1
:10365B0078A4760153D4FEA2019291A2029290D04B
:10366B0000D0D032C0E0E59D30E703539D7FE59D50
:10367B0030E603539DBFE59D30E506539DFE539DFC
:10368B00DFD0E032C0E0E5A930E70353A97FE5A91D
:10369B0030E60353A9BFE5A930E50353A9DFD0E01A
:1036AB0032904036C083C082E0FFA3E054EED0825C
:1036BB00D083CFF0A3EFF0122F8A12358B22C2FFEB
:1036CB00904062E054DFF0E49002BBF0900130F0E8
:1036DB00784BF608F69000FEF02290404FE0440144
:1036EB00F0904051E04480F0A3E04403F090404E52
:1036FB00E04401F0228EEB8FEA43F9020000000058
:10370B000000904092E5EDF0A3E5ECF02253D77F5B
:10371B00E5D5543F4440F5D5D2C7D2C6D2AF22C26D
:10372B00CDD2CCD2AF904061E04440F022E4900087
:10373B00EEF09000F9F0A3F022789D7601E478A3E7
:10374B00F678B1F622309802C298309902C29932BB
:07375B0078B1E678BCF6220C
:00000001FF
